{"project/contracts/PoolBinaryMarket.sol":{"PoolBinaryMarket":{"abi":[{"inputs":[{"internalType":"address","name":"_usdc","type":"address"}],"stateMutability":"nonpayable","type":"constructor"},{"inputs":[{"internalType":"address","name":"owner","type":"address"}],"name":"OwnableInvalidOwner","type":"error"},{"inputs":[{"internalType":"address","name":"account","type":"address"}],"name":"OwnableUnauthorizedAccount","type":"error"},{"inputs":[],"name":"ReentrancyGuardReentrantCall","type":"error"},{"anonymous":false,"inputs":[{"indexed":true,"internalType":"address","name":"user","type":"address"},{"indexed":false,"internalType":"bool","name":"yesSide","type":"bool"},{"indexed":false,"internalType":"uint256","name":"amount","type":"uint256"}],"name":"BetPlaced","type":"event"},{"anonymous":false,"inputs":[{"indexed":true,"internalType":"address","name":"user","type":"address"},{"indexed":false,"internalType":"uint256","name":"amount","type":"uint256"}],"name":"Claimed","type":"event"},{"anonymous":false,"inputs":[{"indexed":false,"internalType":"enum PoolBinaryMarket.Outcome","name":"o","type":"uint8"}],"name":"MarketResolved","type":"event"},{"anonymous":false,"inputs":[{"indexed":true,"internalType":"address","name":"previousOwner","type":"address"},{"indexed":true,"internalType":"address","name":"newOwner","type":"address"}],"name":"OwnershipTransferred","type":"event"},{"inputs":[],"name":"DECIMALS","outputs":[{"internalType":"uint8","name":"","type":"uint8"}],"stateMutability":"view","type":"function"},{"inputs":[],"name":"MAX_PARTICIPANTS","outputs":[{"internalType":"uint256","name":"","type":"uint256"}],"stateMutability":"view","type":"function"},{"inputs":[],"name":"MAX_STAKE_PER_USER","outputs":[{"internalType":"uint256","name":"","type":"uint256"}],"stateMutability":"view","type":"function"},{"inputs":[],"name":"claim","outputs":[],"stateMutability":"nonpayable","type":"function"},{"inputs":[],"name":"impliedYesBps","outputs":[{"internalType":"uint256","name":"","type":"uint256"}],"stateMutability":"view","type":"function"},{"inputs":[{"internalType":"address","name":"","type":"address"}],"name":"noOf","outputs":[{"internalType":"uint256","name":"","type":"uint256"}],"stateMutability":"view","type":"function"},{"inputs":[],"name":"noPoolMultiplierE4","outputs":[{"internalType":"uint256","name":"","type":"uint256"}],"stateMutability":"view","type":"function"},{"inputs":[],"name":"outcome","outputs":[{"internalType":"enum PoolBinaryMarket.Outcome","name":"","type":"uint8"}],"stateMutability":"view","type":"function"},{"inputs":[],"name":"owner","outputs":[{"internalType":"address","name":"","type":"address"}],"stateMutability":"view","type":"function"},{"inputs":[{"internalType":"uint256","name":"i","type":"uint256"}],"name":"participantAt","outputs":[{"internalType":"address","name":"","type":"address"}],"stateMutability":"view","type":"function"},{"inputs":[],"name":"participantCount","outputs":[{"internalType":"uint256","name":"","type":"uint256"}],"stateMutability":"view","type":"function"},{"inputs":[{"internalType":"bool","name":"yes","type":"bool"},{"internalType":"uint256","name":"amount","type":"uint256"}],"name":"placeBet","outputs":[],"stateMutability":"nonpayable","type":"function"},{"inputs":[],"name":"renounceOwnership","outputs":[],"stateMutability":"nonpayable","type":"function"},{"inputs":[{"internalType":"enum PoolBinaryMarket.Outcome","name":"o","type":"uint8"}],"name":"resolve","outputs":[],"stateMutability":"nonpayable","type":"function"},{"inputs":[],"name":"resolved","outputs":[{"internalType":"bool","name":"","type":"bool"}],"stateMutability":"view","type":"function"},{"inputs":[],"name":"totalNo","outputs":[{"internalType":"uint256","name":"","type":"uint256"}],"stateMutability":"view","type":"function"},{"inputs":[],"name":"totalYes","outputs":[{"internalType":"uint256","name":"","type":"uint256"}],"stateMutability":"view","type":"function"},{"inputs":[{"internalType":"address","name":"newOwner","type":"address"}],"name":"transferOwnership","outputs":[],"stateMutability":"nonpayable","type":"function"},{"inputs":[],"name":"usdc","outputs":[{"internalType":"contract IERC20","name":"","type":"address"}],"stateMutability":"view","type":"function"},{"inputs":[{"internalType":"address","name":"","type":"address"}],"name":"yesOf","outputs":[{"internalType":"uint256","name":"","type":"uint256"}],"stateMutability":"view","type":"function"},{"inputs":[],"name":"yesPoolMultiplierE4","outputs":[{"internalType":"uint256","name":"","type":"uint256"}],"stateMutability":"view","type":"function"}],"evm":{"bytecode":{"linkReferences":{},"object":"60a060405234801561000f575f5ffd5b5060405161113938038061113983398101604081905261002e916100e1565b338061005357604051631e4fbdf760e01b81525f600482015260240160405180910390fd5b61005c81610092565b5060017f9b779b17422d0df92223018b32b4d1fa46e071723d6817e2486d003becc55f00556001600160a01b031660805261010e565b5f80546001600160a01b038381166001600160a01b0319831681178455604051919092169283917f8be0079c531659141344cd1fd0a4f28419497f9722a3daafe3b4186f6b6457e09190a35050565b5f602082840312156100f1575f5ffd5b81516001600160a01b0381168114610107575f5ffd5b9392505050565b6080516110056101345f395f81816101bf015281816105970152610b0e01526110055ff3fe608060405234801561000f575f5ffd5b5060043610610132575f3560e01c80638517e93c116100b4578063af00888311610079578063af0088831461026b578063b7c7323314610274578063d2da86be14610293578063f2fde38b1461029b578063f3baf070146102ae578063f7f74b22146102b6575f5ffd5b80638517e93c1461022f57806388ba8dd6146102375780638da5cb5b146102405780639fced10614610250578063a0270dbc14610258575f5ffd5b80633e413bee116100fa5780633e413bee146101ba5780633f6fa655146101e15780634e71d92d146101fe5780636f360bb814610208578063715018a614610227575f5ffd5b8063065bab2d1461013657806327793f87146101665780632e0f262514610186578063362f04c0146101a0578063374a8658146101b2575b5f5ffd5b610149610144366004610d5c565b6102c9565b6040516001600160a01b0390911681526020015b60405180910390f35b5f5461017990600160a01b900460ff1681565b60405161015d9190610d87565b61018e600681565b60405160ff909116815260200161015d565b6005545b60405190815260200161015d565b6101a46102f7565b6101497f000000000000000000000000000000000000000000000000000000000000000081565b6007546101ee9060ff1681565b604051901515815260200161015d565b610206610331565b005b6101a4610216366004610dad565b60036020525f908152604090205481565b61020661068c565b6101a461069d565b6101a460015481565b5f546001600160a01b0316610149565b6101a46106b8565b610206610266366004610dda565b6106fd565b6101a460025481565b6101a4610282366004610dad565b60046020525f908152604090205481565b6101a4610831565b6102066102a9366004610dad565b610851565b6101a4600a81565b6102066102c4366004610e05565b61088e565b5f600582815481106102dd576102dd610e2f565b5f918252602090912001546001600160a01b031692915050565b5f6001545f0361030657505f90565b6001546002546103169082610e57565b61032290612710610e70565b61032c9190610e87565b905090565b610339610c97565b60075460ff1661037f5760405162461bcd60e51b815260206004820152600c60248201526b1b9bdd081c995cdbdb1d995960a21b60448201526064015b60405180910390fd5b5f5f54600160a01b900460ff16600281111561039d5761039d610d73565b036103d75760405162461bcd60e51b815260206004820152600a6024820152696e6f206f7574636f6d6560b01b6044820152606401610376565b5f60015f54600160a01b900460ff1660028111156103f7576103f7610d73565b036104a057335f908152600360205260409020548061044f5760405162461bcd60e51b81526020600482015260146024820152736e6f2077696e6e696e6720594553207374616b6560601b6044820152606401610376565b5f6002546001546104609190610e57565b6001549091506104708383610e70565b61047a9190610e87565b335f9081526003602090815260408083208390556004909152812055925061053e915050565b335f90815260046020526040902054806104f25760405162461bcd60e51b81526020600482015260136024820152726e6f2077696e6e696e67204e4f207374616b6560681b6044820152606401610376565b5f6002546001546105039190610e57565b6002549091506105138383610e70565b61051d9190610e87565b335f9081526004602090815260408083208390556003909152812055925050505b5f811161057b5760405162461bcd60e51b815260206004820152600b60248201526a1e995c9bc81c185e5bdd5d60aa1b6044820152606401610376565b60405163a9059cbb60e01b8152336004820152602481018290527f00000000000000000000000000000000000000000000000000000000000000006001600160a01b03169063a9059cbb906044016020604051808303815f875af11580156105e5573d5f5f3e3d5ffd5b505050506040513d601f19601f820116820180604052508101906106099190610ea6565b61063e5760405162461bcd60e51b81526020600482015260066024820152651c185e5bdd5d60d21b6044820152606401610376565b60405181815233907fd8138f8a3f377c5259ca548e70e4c2de94f129f5a11036a15b69513cba2b426a9060200160405180910390a25061068a60015f516020610fb05f395f51905f5255565b565b610694610cb2565b61068a5f610cde565b6106a96006600a610fa4565b6106b5906103e8610e70565b81565b5f5f6002546001546106ca9190610e57565b9050805f036106dc5761138891505090565b806001546127106106ed9190610e70565b6106f79190610e87565b91505090565b610705610cb2565b600181600281111561071957610719610d73565b14806107365750600281600281111561073457610734610d73565b145b61076c5760405162461bcd60e51b81526020600482015260076024820152661a5b9d985b1a5960ca1b6044820152606401610376565b5f5f54600160a01b900460ff16600281111561078a5761078a610d73565b146107c15760405162461bcd60e51b8152602060048201526007602482015266616c726561647960c81b6044820152606401610376565b6007805460ff191660011790555f805482919060ff60a01b1916600160a01b8360028111156107f2576107f2610d73565b02179055507f94e5f71d5001613eb5e4ad876acb1da127582270c692c34fbcf810be21728b1d816040516108269190610d87565b60405180910390a150565b5f6002545f0361084057505f90565b600254600154610316908290610e57565b610859610cb2565b6001600160a01b03811661088257604051631e4fbdf760e01b81525f6004820152602401610376565b61088b81610cde565b50565b610896610c97565b60075460ff16156108d45760405162461bcd60e51b81526020600482015260086024820152671c995cdbdb1d995960c21b6044820152606401610376565b5f811161090c5760405162461bcd60e51b8152602060048201526006602482015265185b5bdd5b9d60d21b6044820152606401610376565b335f9081526004602090815260408083205460039092528220546109309190610e57565b905061093e6006600a610fa4565b61094a906103e8610e70565b6109548383610e57565b11156109965760405162461bcd60e51b815260206004820152601160248201527007065722d7573657220636170203130303607c1b6044820152606401610376565b82156109ed57335f90815260046020526040902054156109e85760405162461bcd60e51b815260206004820152600d60248201526c6f6e652073696465206f6e6c7960981b6044820152606401610376565b610a39565b335f9081526003602052604090205415610a395760405162461bcd60e51b815260206004820152600d60248201526c6f6e652073696465206f6e6c7960981b6044820152606401610376565b335f9081526006602052604090205460ff16610aea57600554600a11610a905760405162461bcd60e51b815260206004820152600c60248201526b6d617820313020757365727360a01b6044820152606401610376565b6005805460018181019092557f036b6384b5eca791c62761152d0c79bb0604c104a5fb6f4eb0703f3154bb3db00180546001600160a01b031916339081179091555f908152600660205260409020805460ff191690911790555b6040516323b872dd60e01b8152336004820152306024820152604481018390525f907f00000000000000000000000000000000000000000000000000000000000000006001600160a01b0316906323b872dd906064016020604051808303815f875af1158015610b5c573d5f5f3e3d5ffd5b505050506040513d601f19601f82011682018060405250810190610b809190610ea6565b905080610bbf5760405162461bcd60e51b815260206004820152600d60248201526c2aa9a221903a3930b739b332b960991b6044820152606401610376565b8315610c04578260015f828254610bd69190610e57565b9091555050335f9081526003602052604081208054859290610bf9908490610e57565b90915550610c3e9050565b8260025f828254610c159190610e57565b9091555050335f9081526004602052604081208054859290610c38908490610e57565b90915550505b6040805185151581526020810185905233917fe57fa5a543ebcdebf2a7d7102ac913e14454cec006468e43a6916e95bdfcea9e910160405180910390a25050610c9360015f516020610fb05f395f51905f5255565b5050565b610c9f610d2d565b60025f516020610fb05f395f51905f5255565b5f546001600160a01b0316331461068a5760405163118cdaa760e01b8152336004820152602401610376565b5f80546001600160a01b038381166001600160a01b0319831681178455604051919092169283917f8be0079c531659141344cd1fd0a4f28419497f9722a3daafe3b4186f6b6457e09190a35050565b5f516020610fb05f395f51905f525460020361068a57604051633ee5aeb560e01b815260040160405180910390fd5b5f60208284031215610d6c575f5ffd5b5035919050565b634e487b7160e01b5f52602160045260245ffd5b6020810160038310610da757634e487b7160e01b5f52602160045260245ffd5b91905290565b5f60208284031215610dbd575f5ffd5b81356001600160a01b0381168114610dd3575f5ffd5b9392505050565b5f60208284031215610dea575f5ffd5b813560038110610dd3575f5ffd5b801515811461088b575f5ffd5b5f5f60408385031215610e16575f5ffd5b8235610e2181610df8565b946020939093013593505050565b634e487b7160e01b5f52603260045260245ffd5b634e487b7160e01b5f52601160045260245ffd5b80820180821115610e6a57610e6a610e43565b92915050565b8082028115828204841417610e6a57610e6a610e43565b5f82610ea157634e487b7160e01b5f52601260045260245ffd5b500490565b5f60208284031215610eb6575f5ffd5b8151610dd381610df8565b6001815b6001841115610efc57808504811115610ee057610ee0610e43565b6001841615610eee57908102905b60019390931c928002610ec5565b935093915050565b5f82610f1257506001610e6a565b81610f1e57505f610e6a565b8160018114610f345760028114610f3e57610f5a565b6001915050610e6a565b60ff841115610f4f57610f4f610e43565b50506001821b610e6a565b5060208310610133831016604e8410600b8410161715610f7d575081810a610e6a565b610f895f198484610ec1565b805f1904821115610f9c57610f9c610e43565b029392505050565b5f610dd38383610f0456fe9b779b17422d0df92223018b32b4d1fa46e071723d6817e2486d003becc55f00a26469706673582212203029070d0e88d129652d96684a109a1bcc49ae7ca7cb29f7bee77ee1c4efdefa64736f6c634300081c0033","opcodes":"PUSH1 0xA0 PUSH1 0x40 MSTORE CALLVALUE DUP1 ISZERO PUSH2 0xF JUMPI PUSH0 PUSH0 REVERT JUMPDEST POP PUSH1 0x40 MLOAD PUSH2 0x1139 CODESIZE SUB DUP1 PUSH2 0x1139 DUP4 CODECOPY DUP2 ADD PUSH1 0x40 DUP2 SWAP1 MSTORE PUSH2 0x2E SWAP2 PUSH2 0xE1 JUMP JUMPDEST CALLER DUP1 PUSH2 0x53 JUMPI PUSH1 0x40 MLOAD PUSH4 0x1E4FBDF7 PUSH1 0xE0 SHL DUP2 MSTORE PUSH0 PUSH1 0x4 DUP3 ADD MSTORE PUSH1 0x24 ADD PUSH1 0x40 MLOAD DUP1 SWAP2 SUB SWAP1 REVERT JUMPDEST PUSH2 0x5C DUP2 PUSH2 0x92 JUMP JUMPDEST POP PUSH1 0x1 PUSH32 0x9B779B17422D0DF92223018B32B4D1FA46E071723D6817E2486D003BECC55F00 SSTORE PUSH1 0x1 PUSH1 0x1 PUSH1 0xA0 SHL SUB AND PUSH1 0x80 MSTORE PUSH2 0x10E JUMP JUMPDEST PUSH0 DUP1 SLOAD PUSH1 0x1 PUSH1 0x1 PUSH1 0xA0 SHL SUB DUP4 DUP2 AND PUSH1 0x1 PUSH1 0x1 PUSH1 0xA0 SHL SUB NOT DUP4 AND DUP2 OR DUP5 SSTORE PUSH1 0x40 MLOAD SWAP2 SWAP1 SWAP3 AND SWAP3 DUP4 SWAP2 PUSH32 0x8BE0079C531659141344CD1FD0A4F28419497F9722A3DAAFE3B4186F6B6457E0 SWAP2 SWAP1 LOG3 POP POP JUMP JUMPDEST PUSH0 PUSH1 0x20 DUP3 DUP5 SUB SLT ISZERO PUSH2 0xF1 JUMPI PUSH0 PUSH0 REVERT JUMPDEST DUP2 MLOAD PUSH1 0x1 PUSH1 0x1 PUSH1 0xA0 SHL SUB DUP2 AND DUP2 EQ PUSH2 0x107 JUMPI PUSH0 PUSH0 REVERT JUMPDEST SWAP4 SWAP3 POP POP POP JUMP JUMPDEST PUSH1 0x80 MLOAD PUSH2 0x1005 PUSH2 0x134 PUSH0 CODECOPY PUSH0 DUP2 DUP2 PUSH2 0x1BF ADD MSTORE DUP2 DUP2 PUSH2 0x597 ADD MSTORE PUSH2 0xB0E ADD MSTORE PUSH2 0x1005 PUSH0 RETURN INVALID PUSH1 0x80 PUSH1 0x40 MSTORE CALLVALUE DUP1 ISZERO PUSH2 0xF JUMPI PUSH0 PUSH0 REVERT JUMPDEST POP PUSH1 0x4 CALLDATASIZE LT PUSH2 0x132 JUMPI PUSH0 CALLDATALOAD PUSH1 0xE0 SHR DUP1 PUSH4 0x8517E93C GT PUSH2 0xB4 JUMPI DUP1 PUSH4 0xAF008883 GT PUSH2 0x79 JUMPI DUP1 PUSH4 0xAF008883 EQ PUSH2 0x26B JUMPI DUP1 PUSH4 0xB7C73233 EQ PUSH2 0x274 JUMPI DUP1 PUSH4 0xD2DA86BE EQ PUSH2 0x293 JUMPI DUP1 PUSH4 0xF2FDE38B EQ PUSH2 0x29B JUMPI DUP1 PUSH4 0xF3BAF070 EQ PUSH2 0x2AE JUMPI DUP1 PUSH4 0xF7F74B22 EQ PUSH2 0x2B6 JUMPI PUSH0 PUSH0 REVERT JUMPDEST DUP1 PUSH4 0x8517E93C EQ PUSH2 0x22F JUMPI DUP1 PUSH4 0x88BA8DD6 EQ PUSH2 0x237 JUMPI DUP1 PUSH4 0x8DA5CB5B EQ PUSH2 0x240 JUMPI DUP1 PUSH4 0x9FCED106 EQ PUSH2 0x250 JUMPI DUP1 PUSH4 0xA0270DBC EQ PUSH2 0x258 JUMPI PUSH0 PUSH0 REVERT JUMPDEST DUP1 PUSH4 0x3E413BEE GT PUSH2 0xFA JUMPI DUP1 PUSH4 0x3E413BEE EQ PUSH2 0x1BA JUMPI DUP1 PUSH4 0x3F6FA655 EQ PUSH2 0x1E1 JUMPI DUP1 PUSH4 0x4E71D92D EQ PUSH2 0x1FE JUMPI DUP1 PUSH4 0x6F360BB8 EQ PUSH2 0x208 JUMPI DUP1 PUSH4 0x715018A6 EQ PUSH2 0x227 JUMPI PUSH0 PUSH0 REVERT JUMPDEST DUP1 PUSH4 0x65BAB2D EQ PUSH2 0x136 JUMPI DUP1 PUSH4 0x27793F87 EQ PUSH2 0x166 JUMPI DUP1 PUSH4 0x2E0F2625 EQ PUSH2 0x186 JUMPI DUP1 PUSH4 0x362F04C0 EQ PUSH2 0x1A0 JUMPI DUP1 PUSH4 0x374A8658 EQ PUSH2 0x1B2 JUMPI JUMPDEST PUSH0 PUSH0 REVERT JUMPDEST PUSH2 0x149 PUSH2 0x144 CALLDATASIZE PUSH1 0x4 PUSH2 0xD5C JUMP JUMPDEST PUSH2 0x2C9 JUMP JUMPDEST PUSH1 0x40 MLOAD PUSH1 0x1 PUSH1 0x1 PUSH1 0xA0 SHL SUB SWAP1 SWAP2 AND DUP2 MSTORE PUSH1 0x20 ADD JUMPDEST PUSH1 0x40 MLOAD DUP1 SWAP2 SUB SWAP1 RETURN JUMPDEST PUSH0 SLOAD PUSH2 0x179 SWAP1 PUSH1 0x1 PUSH1 0xA0 SHL SWAP1 DIV PUSH1 0xFF AND DUP2 JUMP JUMPDEST PUSH1 0x40 MLOAD PUSH2 0x15D SWAP2 SWAP1 PUSH2 0xD87 JUMP JUMPDEST PUSH2 0x18E PUSH1 0x6 DUP2 JUMP JUMPDEST PUSH1 0x40 MLOAD PUSH1 0xFF SWAP1 SWAP2 AND DUP2 MSTORE PUSH1 0x20 ADD PUSH2 0x15D JUMP JUMPDEST PUSH1 0x5 SLOAD JUMPDEST PUSH1 0x40 MLOAD SWAP1 DUP2 MSTORE PUSH1 0x20 ADD PUSH2 0x15D JUMP JUMPDEST PUSH2 0x1A4 PUSH2 0x2F7 JUMP JUMPDEST PUSH2 0x149 PUSH32 0x0 DUP2 JUMP JUMPDEST PUSH1 0x7 SLOAD PUSH2 0x1EE SWAP1 PUSH1 0xFF AND DUP2 JUMP JUMPDEST PUSH1 0x40 MLOAD SWAP1 ISZERO ISZERO DUP2 MSTORE PUSH1 0x20 ADD PUSH2 0x15D JUMP JUMPDEST PUSH2 0x206 PUSH2 0x331 JUMP JUMPDEST STOP JUMPDEST PUSH2 0x1A4 PUSH2 0x216 CALLDATASIZE PUSH1 0x4 PUSH2 0xDAD JUMP JUMPDEST PUSH1 0x3 PUSH1 0x20 MSTORE PUSH0 SWAP1 DUP2 MSTORE PUSH1 0x40 SWAP1 KECCAK256 SLOAD DUP2 JUMP JUMPDEST PUSH2 0x206 PUSH2 0x68C JUMP JUMPDEST PUSH2 0x1A4 PUSH2 0x69D JUMP JUMPDEST PUSH2 0x1A4 PUSH1 0x1 SLOAD DUP2 JUMP JUMPDEST PUSH0 SLOAD PUSH1 0x1 PUSH1 0x1 PUSH1 0xA0 SHL SUB AND PUSH2 0x149 JUMP JUMPDEST PUSH2 0x1A4 PUSH2 0x6B8 JUMP JUMPDEST PUSH2 0x206 PUSH2 0x266 CALLDATASIZE PUSH1 0x4 PUSH2 0xDDA JUMP JUMPDEST PUSH2 0x6FD JUMP JUMPDEST PUSH2 0x1A4 PUSH1 0x2 SLOAD DUP2 JUMP JUMPDEST PUSH2 0x1A4 PUSH2 0x282 CALLDATASIZE PUSH1 0x4 PUSH2 0xDAD JUMP JUMPDEST PUSH1 0x4 PUSH1 0x20 MSTORE PUSH0 SWAP1 DUP2 MSTORE PUSH1 0x40 SWAP1 KECCAK256 SLOAD DUP2 JUMP JUMPDEST PUSH2 0x1A4 PUSH2 0x831 JUMP JUMPDEST PUSH2 0x206 PUSH2 0x2A9 CALLDATASIZE PUSH1 0x4 PUSH2 0xDAD JUMP JUMPDEST PUSH2 0x851 JUMP JUMPDEST PUSH2 0x1A4 PUSH1 0xA DUP2 JUMP JUMPDEST PUSH2 0x206 PUSH2 0x2C4 CALLDATASIZE PUSH1 0x4 PUSH2 0xE05 JUMP JUMPDEST PUSH2 0x88E JUMP JUMPDEST PUSH0 PUSH1 0x5 DUP3 DUP2 SLOAD DUP2 LT PUSH2 0x2DD JUMPI PUSH2 0x2DD PUSH2 0xE2F JUMP JUMPDEST PUSH0 SWAP2 DUP3 MSTORE PUSH1 0x20 SWAP1 SWAP2 KECCAK256 ADD SLOAD PUSH1 0x1 PUSH1 0x1 PUSH1 0xA0 SHL SUB AND SWAP3 SWAP2 POP POP JUMP JUMPDEST PUSH0 PUSH1 0x1 SLOAD PUSH0 SUB PUSH2 0x306 JUMPI POP PUSH0 SWAP1 JUMP JUMPDEST PUSH1 0x1 SLOAD PUSH1 0x2 SLOAD PUSH2 0x316 SWAP1 DUP3 PUSH2 0xE57 JUMP JUMPDEST PUSH2 0x322 SWAP1 PUSH2 0x2710 PUSH2 0xE70 JUMP JUMPDEST PUSH2 0x32C SWAP2 SWAP1 PUSH2 0xE87 JUMP JUMPDEST SWAP1 POP SWAP1 JUMP JUMPDEST PUSH2 0x339 PUSH2 0xC97 JUMP JUMPDEST PUSH1 0x7 SLOAD PUSH1 0xFF AND PUSH2 0x37F JUMPI PUSH1 0x40 MLOAD PUSH3 0x461BCD PUSH1 0xE5 SHL DUP2 MSTORE PUSH1 0x20 PUSH1 0x4 DUP3 ADD MSTORE PUSH1 0xC PUSH1 0x24 DUP3 ADD MSTORE PUSH12 0x1B9BDD081C995CDBDB1D9959 PUSH1 0xA2 SHL PUSH1 0x44 DUP3 ADD MSTORE PUSH1 0x64 ADD JUMPDEST PUSH1 0x40 MLOAD DUP1 SWAP2 SUB SWAP1 REVERT JUMPDEST PUSH0 PUSH0 SLOAD PUSH1 0x1 PUSH1 0xA0 SHL SWAP1 DIV PUSH1 0xFF AND PUSH1 0x2 DUP2 GT ISZERO PUSH2 0x39D JUMPI PUSH2 0x39D PUSH2 0xD73 JUMP JUMPDEST SUB PUSH2 0x3D7 JUMPI PUSH1 0x40 MLOAD PUSH3 0x461BCD PUSH1 0xE5 SHL DUP2 MSTORE PUSH1 0x20 PUSH1 0x4 DUP3 ADD MSTORE PUSH1 0xA PUSH1 0x24 DUP3 ADD MSTORE PUSH10 0x6E6F206F7574636F6D65 PUSH1 0xB0 SHL PUSH1 0x44 DUP3 ADD MSTORE PUSH1 0x64 ADD PUSH2 0x376 JUMP JUMPDEST PUSH0 PUSH1 0x1 PUSH0 SLOAD PUSH1 0x1 PUSH1 0xA0 SHL SWAP1 DIV PUSH1 0xFF AND PUSH1 0x2 DUP2 GT ISZERO PUSH2 0x3F7 JUMPI PUSH2 0x3F7 PUSH2 0xD73 JUMP JUMPDEST SUB PUSH2 0x4A0 JUMPI CALLER PUSH0 SWAP1 DUP2 MSTORE PUSH1 0x3 PUSH1 0x20 MSTORE PUSH1 0x40 SWAP1 KECCAK256 SLOAD DUP1 PUSH2 0x44F JUMPI PUSH1 0x40 MLOAD PUSH3 0x461BCD PUSH1 0xE5 SHL DUP2 MSTORE PUSH1 0x20 PUSH1 0x4 DUP3 ADD MSTORE PUSH1 0x14 PUSH1 0x24 DUP3 ADD MSTORE PUSH20 0x6E6F2077696E6E696E6720594553207374616B65 PUSH1 0x60 SHL PUSH1 0x44 DUP3 ADD MSTORE PUSH1 0x64 ADD PUSH2 0x376 JUMP JUMPDEST PUSH0 PUSH1 0x2 SLOAD PUSH1 0x1 SLOAD PUSH2 0x460 SWAP2 SWAP1 PUSH2 0xE57 JUMP JUMPDEST PUSH1 0x1 SLOAD SWAP1 SWAP2 POP PUSH2 0x470 DUP4 DUP4 PUSH2 0xE70 JUMP JUMPDEST PUSH2 0x47A SWAP2 SWAP1 PUSH2 0xE87 JUMP JUMPDEST CALLER PUSH0 SWAP1 DUP2 MSTORE PUSH1 0x3 PUSH1 0x20 SWAP1 DUP2 MSTORE PUSH1 0x40 DUP1 DUP4 KECCAK256 DUP4 SWAP1 SSTORE PUSH1 0x4 SWAP1 SWAP2 MSTORE DUP2 KECCAK256 SSTORE SWAP3 POP PUSH2 0x53E SWAP2 POP POP JUMP JUMPDEST CALLER PUSH0 SWAP1 DUP2 MSTORE PUSH1 0x4 PUSH1 0x20 MSTORE PUSH1 0x40 SWAP1 KECCAK256 SLOAD DUP1 PUSH2 0x4F2 JUMPI PUSH1 0x40 MLOAD PUSH3 0x461BCD PUSH1 0xE5 SHL DUP2 MSTORE PUSH1 0x20 PUSH1 0x4 DUP3 ADD MSTORE PUSH1 0x13 PUSH1 0x24 DUP3 ADD MSTORE PUSH19 0x6E6F2077696E6E696E67204E4F207374616B65 PUSH1 0x68 SHL PUSH1 0x44 DUP3 ADD MSTORE PUSH1 0x64 ADD PUSH2 0x376 JUMP JUMPDEST PUSH0 PUSH1 0x2 SLOAD PUSH1 0x1 SLOAD PUSH2 0x503 SWAP2 SWAP1 PUSH2 0xE57 JUMP JUMPDEST PUSH1 0x2 SLOAD SWAP1 SWAP2 POP PUSH2 0x513 DUP4 DUP4 PUSH2 0xE70 JUMP JUMPDEST PUSH2 0x51D SWAP2 SWAP1 PUSH2 0xE87 JUMP JUMPDEST CALLER PUSH0 SWAP1 DUP2 MSTORE PUSH1 0x4 PUSH1 0x20 SWAP1 DUP2 MSTORE PUSH1 0x40 DUP1 DUP4 KECCAK256 DUP4 SWAP1 SSTORE PUSH1 0x3 SWAP1 SWAP2 MSTORE DUP2 KECCAK256 SSTORE SWAP3 POP POP POP JUMPDEST PUSH0 DUP2 GT PUSH2 0x57B JUMPI PUSH1 0x40 MLOAD PUSH3 0x461BCD PUSH1 0xE5 SHL DUP2 MSTORE PUSH1 0x20 PUSH1 0x4 DUP3 ADD MSTORE PUSH1 0xB PUSH1 0x24 DUP3 ADD MSTORE PUSH11 0x1E995C9BC81C185E5BDD5D PUSH1 0xAA SHL PUSH1 0x44 DUP3 ADD MSTORE PUSH1 0x64 ADD PUSH2 0x376 JUMP JUMPDEST PUSH1 0x40 MLOAD PUSH4 0xA9059CBB PUSH1 0xE0 SHL DUP2 MSTORE CALLER PUSH1 0x4 DUP3 ADD MSTORE PUSH1 0x24 DUP2 ADD DUP3 SWAP1 MSTORE PUSH32 0x0 PUSH1 0x1 PUSH1 0x1 PUSH1 0xA0 SHL SUB AND SWAP1 PUSH4 0xA9059CBB SWAP1 PUSH1 0x44 ADD PUSH1 0x20 PUSH1 0x40 MLOAD DUP1 DUP4 SUB DUP2 PUSH0 DUP8 GAS CALL ISZERO DUP1 ISZERO PUSH2 0x5E5 JUMPI RETURNDATASIZE PUSH0 PUSH0 RETURNDATACOPY RETURNDATASIZE PUSH0 REVERT JUMPDEST POP POP POP POP PUSH1 0x40 MLOAD RETURNDATASIZE PUSH1 0x1F NOT PUSH1 0x1F DUP3 ADD AND DUP3 ADD DUP1 PUSH1 0x40 MSTORE POP DUP2 ADD SWAP1 PUSH2 0x609 SWAP2 SWAP1 PUSH2 0xEA6 JUMP JUMPDEST PUSH2 0x63E JUMPI PUSH1 0x40 MLOAD PUSH3 0x461BCD PUSH1 0xE5 SHL DUP2 MSTORE PUSH1 0x20 PUSH1 0x4 DUP3 ADD MSTORE PUSH1 0x6 PUSH1 0x24 DUP3 ADD MSTORE PUSH6 0x1C185E5BDD5D PUSH1 0xD2 SHL PUSH1 0x44 DUP3 ADD MSTORE PUSH1 0x64 ADD PUSH2 0x376 JUMP JUMPDEST PUSH1 0x40 MLOAD DUP2 DUP2 MSTORE CALLER SWAP1 PUSH32 0xD8138F8A3F377C5259CA548E70E4C2DE94F129F5A11036A15B69513CBA2B426A SWAP1 PUSH1 0x20 ADD PUSH1 0x40 MLOAD DUP1 SWAP2 SUB SWAP1 LOG2 POP PUSH2 0x68A PUSH1 0x1 PUSH0 MLOAD PUSH1 0x20 PUSH2 0xFB0 PUSH0 CODECOPY PUSH0 MLOAD SWAP1 PUSH0 MSTORE SSTORE JUMP JUMPDEST JUMP JUMPDEST PUSH2 0x694 PUSH2 0xCB2 JUMP JUMPDEST PUSH2 0x68A PUSH0 PUSH2 0xCDE JUMP JUMPDEST PUSH2 0x6A9 PUSH1 0x6 PUSH1 0xA PUSH2 0xFA4 JUMP JUMPDEST PUSH2 0x6B5 SWAP1 PUSH2 0x3E8 PUSH2 0xE70 JUMP JUMPDEST DUP2 JUMP JUMPDEST PUSH0 PUSH0 PUSH1 0x2 SLOAD PUSH1 0x1 SLOAD PUSH2 0x6CA SWAP2 SWAP1 PUSH2 0xE57 JUMP JUMPDEST SWAP1 POP DUP1 PUSH0 SUB PUSH2 0x6DC JUMPI PUSH2 0x1388 SWAP2 POP POP SWAP1 JUMP JUMPDEST DUP1 PUSH1 0x1 SLOAD PUSH2 0x2710 PUSH2 0x6ED SWAP2 SWAP1 PUSH2 0xE70 JUMP JUMPDEST PUSH2 0x6F7 SWAP2 SWAP1 PUSH2 0xE87 JUMP JUMPDEST SWAP2 POP POP SWAP1 JUMP JUMPDEST PUSH2 0x705 PUSH2 0xCB2 JUMP JUMPDEST PUSH1 0x1 DUP2 PUSH1 0x2 DUP2 GT ISZERO PUSH2 0x719 JUMPI PUSH2 0x719 PUSH2 0xD73 JUMP JUMPDEST EQ DUP1 PUSH2 0x736 JUMPI POP PUSH1 0x2 DUP2 PUSH1 0x2 DUP2 GT ISZERO PUSH2 0x734 JUMPI PUSH2 0x734 PUSH2 0xD73 JUMP JUMPDEST EQ JUMPDEST PUSH2 0x76C JUMPI PUSH1 0x40 MLOAD PUSH3 0x461BCD PUSH1 0xE5 SHL DUP2 MSTORE PUSH1 0x20 PUSH1 0x4 DUP3 ADD MSTORE PUSH1 0x7 PUSH1 0x24 DUP3 ADD MSTORE PUSH7 0x1A5B9D985B1A59 PUSH1 0xCA SHL PUSH1 0x44 DUP3 ADD MSTORE PUSH1 0x64 ADD PUSH2 0x376 JUMP JUMPDEST PUSH0 PUSH0 SLOAD PUSH1 0x1 PUSH1 0xA0 SHL SWAP1 DIV PUSH1 0xFF AND PUSH1 0x2 DUP2 GT ISZERO PUSH2 0x78A JUMPI PUSH2 0x78A PUSH2 0xD73 JUMP JUMPDEST EQ PUSH2 0x7C1 JUMPI PUSH1 0x40 MLOAD PUSH3 0x461BCD PUSH1 0xE5 SHL DUP2 MSTORE PUSH1 0x20 PUSH1 0x4 DUP3 ADD MSTORE PUSH1 0x7 PUSH1 0x24 DUP3 ADD MSTORE PUSH7 0x616C7265616479 PUSH1 0xC8 SHL PUSH1 0x44 DUP3 ADD MSTORE PUSH1 0x64 ADD PUSH2 0x376 JUMP JUMPDEST PUSH1 0x7 DUP1 SLOAD PUSH1 0xFF NOT AND PUSH1 0x1 OR SWAP1 SSTORE PUSH0 DUP1 SLOAD DUP3 SWAP2 SWAP1 PUSH1 0xFF PUSH1 0xA0 SHL NOT AND PUSH1 0x1 PUSH1 0xA0 SHL DUP4 PUSH1 0x2 DUP2 GT ISZERO PUSH2 0x7F2 JUMPI PUSH2 0x7F2 PUSH2 0xD73 JUMP JUMPDEST MUL OR SWAP1 SSTORE POP PUSH32 0x94E5F71D5001613EB5E4AD876ACB1DA127582270C692C34FBCF810BE21728B1D DUP2 PUSH1 0x40 MLOAD PUSH2 0x826 SWAP2 SWAP1 PUSH2 0xD87 JUMP JUMPDEST PUSH1 0x40 MLOAD DUP1 SWAP2 SUB SWAP1 LOG1 POP JUMP JUMPDEST PUSH0 PUSH1 0x2 SLOAD PUSH0 SUB PUSH2 0x840 JUMPI POP PUSH0 SWAP1 JUMP JUMPDEST PUSH1 0x2 SLOAD PUSH1 0x1 SLOAD PUSH2 0x316 SWAP1 DUP3 SWAP1 PUSH2 0xE57 JUMP JUMPDEST PUSH2 0x859 PUSH2 0xCB2 JUMP JUMPDEST PUSH1 0x1 PUSH1 0x1 PUSH1 0xA0 SHL SUB DUP2 AND PUSH2 0x882 JUMPI PUSH1 0x40 MLOAD PUSH4 0x1E4FBDF7 PUSH1 0xE0 SHL DUP2 MSTORE PUSH0 PUSH1 0x4 DUP3 ADD MSTORE PUSH1 0x24 ADD PUSH2 0x376 JUMP JUMPDEST PUSH2 0x88B DUP2 PUSH2 0xCDE JUMP JUMPDEST POP JUMP JUMPDEST PUSH2 0x896 PUSH2 0xC97 JUMP JUMPDEST PUSH1 0x7 SLOAD PUSH1 0xFF AND ISZERO PUSH2 0x8D4 JUMPI PUSH1 0x40 MLOAD PUSH3 0x461BCD PUSH1 0xE5 SHL DUP2 MSTORE PUSH1 0x20 PUSH1 0x4 DUP3 ADD MSTORE PUSH1 0x8 PUSH1 0x24 DUP3 ADD MSTORE PUSH8 0x1C995CDBDB1D9959 PUSH1 0xC2 SHL PUSH1 0x44 DUP3 ADD MSTORE PUSH1 0x64 ADD PUSH2 0x376 JUMP JUMPDEST PUSH0 DUP2 GT PUSH2 0x90C JUMPI PUSH1 0x40 MLOAD PUSH3 0x461BCD PUSH1 0xE5 SHL DUP2 MSTORE PUSH1 0x20 PUSH1 0x4 DUP3 ADD MSTORE PUSH1 0x6 PUSH1 0x24 DUP3 ADD MSTORE PUSH6 0x185B5BDD5B9D PUSH1 0xD2 SHL PUSH1 0x44 DUP3 ADD MSTORE PUSH1 0x64 ADD PUSH2 0x376 JUMP JUMPDEST CALLER PUSH0 SWAP1 DUP2 MSTORE PUSH1 0x4 PUSH1 0x20 SWAP1 DUP2 MSTORE PUSH1 0x40 DUP1 DUP4 KECCAK256 SLOAD PUSH1 0x3 SWAP1 SWAP3 MSTORE DUP3 KECCAK256 SLOAD PUSH2 0x930 SWAP2 SWAP1 PUSH2 0xE57 JUMP JUMPDEST SWAP1 POP PUSH2 0x93E PUSH1 0x6 PUSH1 0xA PUSH2 0xFA4 JUMP JUMPDEST PUSH2 0x94A SWAP1 PUSH2 0x3E8 PUSH2 0xE70 JUMP JUMPDEST PUSH2 0x954 DUP4 DUP4 PUSH2 0xE57 JUMP JUMPDEST GT ISZERO PUSH2 0x996 JUMPI PUSH1 0x40 MLOAD PUSH3 0x461BCD PUSH1 0xE5 SHL DUP2 MSTORE PUSH1 0x20 PUSH1 0x4 DUP3 ADD MSTORE PUSH1 0x11 PUSH1 0x24 DUP3 ADD MSTORE PUSH17 0x7065722D7573657220636170203130303 PUSH1 0x7C SHL PUSH1 0x44 DUP3 ADD MSTORE PUSH1 0x64 ADD PUSH2 0x376 JUMP JUMPDEST DUP3 ISZERO PUSH2 0x9ED JUMPI CALLER PUSH0 SWAP1 DUP2 MSTORE PUSH1 0x4 PUSH1 0x20 MSTORE PUSH1 0x40 SWAP1 KECCAK256 SLOAD ISZERO PUSH2 0x9E8 JUMPI PUSH1 0x40 MLOAD PUSH3 0x461BCD PUSH1 0xE5 SHL DUP2 MSTORE PUSH1 0x20 PUSH1 0x4 DUP3 ADD MSTORE PUSH1 0xD PUSH1 0x24 DUP3 ADD MSTORE PUSH13 0x6F6E652073696465206F6E6C79 PUSH1 0x98 SHL PUSH1 0x44 DUP3 ADD MSTORE PUSH1 0x64 ADD PUSH2 0x376 JUMP JUMPDEST PUSH2 0xA39 JUMP JUMPDEST CALLER PUSH0 SWAP1 DUP2 MSTORE PUSH1 0x3 PUSH1 0x20 MSTORE PUSH1 0x40 SWAP1 KECCAK256 SLOAD ISZERO PUSH2 0xA39 JUMPI PUSH1 0x40 MLOAD PUSH3 0x461BCD PUSH1 0xE5 SHL DUP2 MSTORE PUSH1 0x20 PUSH1 0x4 DUP3 ADD MSTORE PUSH1 0xD PUSH1 0x24 DUP3 ADD MSTORE PUSH13 0x6F6E652073696465206F6E6C79 PUSH1 0x98 SHL PUSH1 0x44 DUP3 ADD MSTORE PUSH1 0x64 ADD PUSH2 0x376 JUMP JUMPDEST CALLER PUSH0 SWAP1 DUP2 MSTORE PUSH1 0x6 PUSH1 0x20 MSTORE PUSH1 0x40 SWAP1 KECCAK256 SLOAD PUSH1 0xFF AND PUSH2 0xAEA JUMPI PUSH1 0x5 SLOAD PUSH1 0xA GT PUSH2 0xA90 JUMPI PUSH1 0x40 MLOAD PUSH3 0x461BCD PUSH1 0xE5 SHL DUP2 MSTORE PUSH1 0x20 PUSH1 0x4 DUP3 ADD MSTORE PUSH1 0xC PUSH1 0x24 DUP3 ADD MSTORE PUSH12 0x6D6178203130207573657273 PUSH1 0xA0 SHL PUSH1 0x44 DUP3 ADD MSTORE PUSH1 0x64 ADD PUSH2 0x376 JUMP JUMPDEST PUSH1 0x5 DUP1 SLOAD PUSH1 0x1 DUP2 DUP2 ADD SWAP1 SWAP3 SSTORE PUSH32 0x36B6384B5ECA791C62761152D0C79BB0604C104A5FB6F4EB0703F3154BB3DB0 ADD DUP1 SLOAD PUSH1 0x1 PUSH1 0x1 PUSH1 0xA0 SHL SUB NOT AND CALLER SWAP1 DUP2 OR SWAP1 SWAP2 SSTORE PUSH0 SWAP1 DUP2 MSTORE PUSH1 0x6 PUSH1 0x20 MSTORE PUSH1 0x40 SWAP1 KECCAK256 DUP1 SLOAD PUSH1 0xFF NOT AND SWAP1 SWAP2 OR SWAP1 SSTORE JUMPDEST PUSH1 0x40 MLOAD PUSH4 0x23B872DD PUSH1 0xE0 SHL DUP2 MSTORE CALLER PUSH1 0x4 DUP3 ADD MSTORE ADDRESS PUSH1 0x24 DUP3 ADD MSTORE PUSH1 0x44 DUP2 ADD DUP4 SWAP1 MSTORE PUSH0 SWAP1 PUSH32 0x0 PUSH1 0x1 PUSH1 0x1 PUSH1 0xA0 SHL SUB AND SWAP1 PUSH4 0x23B872DD SWAP1 PUSH1 0x64 ADD PUSH1 0x20 PUSH1 0x40 MLOAD DUP1 DUP4 SUB DUP2 PUSH0 DUP8 GAS CALL ISZERO DUP1 ISZERO PUSH2 0xB5C JUMPI RETURNDATASIZE PUSH0 PUSH0 RETURNDATACOPY RETURNDATASIZE PUSH0 REVERT JUMPDEST POP POP POP POP PUSH1 0x40 MLOAD RETURNDATASIZE PUSH1 0x1F NOT PUSH1 0x1F DUP3 ADD AND DUP3 ADD DUP1 PUSH1 0x40 MSTORE POP DUP2 ADD SWAP1 PUSH2 0xB80 SWAP2 SWAP1 PUSH2 0xEA6 JUMP JUMPDEST SWAP1 POP DUP1 PUSH2 0xBBF JUMPI PUSH1 0x40 MLOAD PUSH3 0x461BCD PUSH1 0xE5 SHL DUP2 MSTORE PUSH1 0x20 PUSH1 0x4 DUP3 ADD MSTORE PUSH1 0xD PUSH1 0x24 DUP3 ADD MSTORE PUSH13 0x2AA9A221903A3930B739B332B9 PUSH1 0x99 SHL PUSH1 0x44 DUP3 ADD MSTORE PUSH1 0x64 ADD PUSH2 0x376 JUMP JUMPDEST DUP4 ISZERO PUSH2 0xC04 JUMPI DUP3 PUSH1 0x1 PUSH0 DUP3 DUP3 SLOAD PUSH2 0xBD6 SWAP2 SWAP1 PUSH2 0xE57 JUMP JUMPDEST SWAP1 SWAP2 SSTORE POP POP CALLER PUSH0 SWAP1 DUP2 MSTORE PUSH1 0x3 PUSH1 0x20 MSTORE PUSH1 0x40 DUP2 KECCAK256 DUP1 SLOAD DUP6 SWAP3 SWAP1 PUSH2 0xBF9 SWAP1 DUP5 SWAP1 PUSH2 0xE57 JUMP JUMPDEST SWAP1 SWAP2 SSTORE POP PUSH2 0xC3E SWAP1 POP JUMP JUMPDEST DUP3 PUSH1 0x2 PUSH0 DUP3 DUP3 SLOAD PUSH2 0xC15 SWAP2 SWAP1 PUSH2 0xE57 JUMP JUMPDEST SWAP1 SWAP2 SSTORE POP POP CALLER PUSH0 SWAP1 DUP2 MSTORE PUSH1 0x4 PUSH1 0x20 MSTORE PUSH1 0x40 DUP2 KECCAK256 DUP1 SLOAD DUP6 SWAP3 SWAP1 PUSH2 0xC38 SWAP1 DUP5 SWAP1 PUSH2 0xE57 JUMP JUMPDEST SWAP1 SWAP2 SSTORE POP POP JUMPDEST PUSH1 0x40 DUP1 MLOAD DUP6 ISZERO ISZERO DUP2 MSTORE PUSH1 0x20 DUP2 ADD DUP6 SWAP1 MSTORE CALLER SWAP2 PUSH32 0xE57FA5A543EBCDEBF2A7D7102AC913E14454CEC006468E43A6916E95BDFCEA9E SWAP2 ADD PUSH1 0x40 MLOAD DUP1 SWAP2 SUB SWAP1 LOG2 POP POP PUSH2 0xC93 PUSH1 0x1 PUSH0 MLOAD PUSH1 0x20 PUSH2 0xFB0 PUSH0 CODECOPY PUSH0 MLOAD SWAP1 PUSH0 MSTORE SSTORE JUMP JUMPDEST POP POP JUMP JUMPDEST PUSH2 0xC9F PUSH2 0xD2D JUMP JUMPDEST PUSH1 0x2 PUSH0 MLOAD PUSH1 0x20 PUSH2 0xFB0 PUSH0 CODECOPY PUSH0 MLOAD SWAP1 PUSH0 MSTORE SSTORE JUMP JUMPDEST PUSH0 SLOAD PUSH1 0x1 PUSH1 0x1 PUSH1 0xA0 SHL SUB AND CALLER EQ PUSH2 0x68A JUMPI PUSH1 0x40 MLOAD PUSH4 0x118CDAA7 PUSH1 0xE0 SHL DUP2 MSTORE CALLER PUSH1 0x4 DUP3 ADD MSTORE PUSH1 0x24 ADD PUSH2 0x376 JUMP JUMPDEST PUSH0 DUP1 SLOAD PUSH1 0x1 PUSH1 0x1 PUSH1 0xA0 SHL SUB DUP4 DUP2 AND PUSH1 0x1 PUSH1 0x1 PUSH1 0xA0 SHL SUB NOT DUP4 AND DUP2 OR DUP5 SSTORE PUSH1 0x40 MLOAD SWAP2 SWAP1 SWAP3 AND SWAP3 DUP4 SWAP2 PUSH32 0x8BE0079C531659141344CD1FD0A4F28419497F9722A3DAAFE3B4186F6B6457E0 SWAP2 SWAP1 LOG3 POP POP JUMP JUMPDEST PUSH0 MLOAD PUSH1 0x20 PUSH2 0xFB0 PUSH0 CODECOPY PUSH0 MLOAD SWAP1 PUSH0 MSTORE SLOAD PUSH1 0x2 SUB PUSH2 0x68A JUMPI PUSH1 0x40 MLOAD PUSH4 0x3EE5AEB5 PUSH1 0xE0 SHL DUP2 MSTORE PUSH1 0x4 ADD PUSH1 0x40 MLOAD DUP1 SWAP2 SUB SWAP1 REVERT JUMPDEST PUSH0 PUSH1 0x20 DUP3 DUP5 SUB SLT ISZERO PUSH2 0xD6C JUMPI PUSH0 PUSH0 REVERT JUMPDEST POP CALLDATALOAD SWAP2 SWAP1 POP JUMP JUMPDEST PUSH4 0x4E487B71 PUSH1 0xE0 SHL PUSH0 MSTORE PUSH1 0x21 PUSH1 0x4 MSTORE PUSH1 0x24 PUSH0 REVERT JUMPDEST PUSH1 0x20 DUP2 ADD PUSH1 0x3 DUP4 LT PUSH2 0xDA7 JUMPI PUSH4 0x4E487B71 PUSH1 0xE0 SHL PUSH0 MSTORE PUSH1 0x21 PUSH1 0x4 MSTORE PUSH1 0x24 PUSH0 REVERT JUMPDEST SWAP2 SWAP1 MSTORE SWAP1 JUMP JUMPDEST PUSH0 PUSH1 0x20 DUP3 DUP5 SUB SLT ISZERO PUSH2 0xDBD JUMPI PUSH0 PUSH0 REVERT JUMPDEST DUP2 CALLDATALOAD PUSH1 0x1 PUSH1 0x1 PUSH1 0xA0 SHL SUB DUP2 AND DUP2 EQ PUSH2 0xDD3 JUMPI PUSH0 PUSH0 REVERT JUMPDEST SWAP4 SWAP3 POP POP POP JUMP JUMPDEST PUSH0 PUSH1 0x20 DUP3 DUP5 SUB SLT ISZERO PUSH2 0xDEA JUMPI PUSH0 PUSH0 REVERT JUMPDEST DUP2 CALLDATALOAD PUSH1 0x3 DUP2 LT PUSH2 0xDD3 JUMPI PUSH0 PUSH0 REVERT JUMPDEST DUP1 ISZERO ISZERO DUP2 EQ PUSH2 0x88B JUMPI PUSH0 PUSH0 REVERT JUMPDEST PUSH0 PUSH0 PUSH1 0x40 DUP4 DUP6 SUB SLT ISZERO PUSH2 0xE16 JUMPI PUSH0 PUSH0 REVERT JUMPDEST DUP3 CALLDATALOAD PUSH2 0xE21 DUP2 PUSH2 0xDF8 JUMP JUMPDEST SWAP5 PUSH1 0x20 SWAP4 SWAP1 SWAP4 ADD CALLDATALOAD SWAP4 POP POP POP JUMP JUMPDEST PUSH4 0x4E487B71 PUSH1 0xE0 SHL PUSH0 MSTORE PUSH1 0x32 PUSH1 0x4 MSTORE PUSH1 0x24 PUSH0 REVERT JUMPDEST PUSH4 0x4E487B71 PUSH1 0xE0 SHL PUSH0 MSTORE PUSH1 0x11 PUSH1 0x4 MSTORE PUSH1 0x24 PUSH0 REVERT JUMPDEST DUP1 DUP3 ADD DUP1 DUP3 GT ISZERO PUSH2 0xE6A JUMPI PUSH2 0xE6A PUSH2 0xE43 JUMP JUMPDEST SWAP3 SWAP2 POP POP JUMP JUMPDEST DUP1 DUP3 MUL DUP2 ISZERO DUP3 DUP3 DIV DUP5 EQ OR PUSH2 0xE6A JUMPI PUSH2 0xE6A PUSH2 0xE43 JUMP JUMPDEST PUSH0 DUP3 PUSH2 0xEA1 JUMPI PUSH4 0x4E487B71 PUSH1 0xE0 SHL PUSH0 MSTORE PUSH1 0x12 PUSH1 0x4 MSTORE PUSH1 0x24 PUSH0 REVERT JUMPDEST POP DIV SWAP1 JUMP JUMPDEST PUSH0 PUSH1 0x20 DUP3 DUP5 SUB SLT ISZERO PUSH2 0xEB6 JUMPI PUSH0 PUSH0 REVERT JUMPDEST DUP2 MLOAD PUSH2 0xDD3 DUP2 PUSH2 0xDF8 JUMP JUMPDEST PUSH1 0x1 DUP2 JUMPDEST PUSH1 0x1 DUP5 GT ISZERO PUSH2 0xEFC JUMPI DUP1 DUP6 DIV DUP2 GT ISZERO PUSH2 0xEE0 JUMPI PUSH2 0xEE0 PUSH2 0xE43 JUMP JUMPDEST PUSH1 0x1 DUP5 AND ISZERO PUSH2 0xEEE JUMPI SWAP1 DUP2 MUL SWAP1 JUMPDEST PUSH1 0x1 SWAP4 SWAP1 SWAP4 SHR SWAP3 DUP1 MUL PUSH2 0xEC5 JUMP JUMPDEST SWAP4 POP SWAP4 SWAP2 POP POP JUMP JUMPDEST PUSH0 DUP3 PUSH2 0xF12 JUMPI POP PUSH1 0x1 PUSH2 0xE6A JUMP JUMPDEST DUP2 PUSH2 0xF1E JUMPI POP PUSH0 PUSH2 0xE6A JUMP JUMPDEST DUP2 PUSH1 0x1 DUP2 EQ PUSH2 0xF34 JUMPI PUSH1 0x2 DUP2 EQ PUSH2 0xF3E JUMPI PUSH2 0xF5A JUMP JUMPDEST PUSH1 0x1 SWAP2 POP POP PUSH2 0xE6A JUMP JUMPDEST PUSH1 0xFF DUP5 GT ISZERO PUSH2 0xF4F JUMPI PUSH2 0xF4F PUSH2 0xE43 JUMP JUMPDEST POP POP PUSH1 0x1 DUP3 SHL PUSH2 0xE6A JUMP JUMPDEST POP PUSH1 0x20 DUP4 LT PUSH2 0x133 DUP4 LT AND PUSH1 0x4E DUP5 LT PUSH1 0xB DUP5 LT AND OR ISZERO PUSH2 0xF7D JUMPI POP DUP2 DUP2 EXP PUSH2 0xE6A JUMP JUMPDEST PUSH2 0xF89 PUSH0 NOT DUP5 DUP5 PUSH2 0xEC1 JUMP JUMPDEST DUP1 PUSH0 NOT DIV DUP3 GT ISZERO PUSH2 0xF9C JUMPI PUSH2 0xF9C PUSH2 0xE43 JUMP JUMPDEST MUL SWAP4 SWAP3 POP POP POP JUMP JUMPDEST PUSH0 PUSH2 0xDD3 DUP4 DUP4 PUSH2 0xF04 JUMP INVALID SWAP12 PUSH24 0x9B17422D0DF92223018B32B4D1FA46E071723D6817E2486D STOP EXTCODESIZE 0xEC 0xC5 PUSH0 STOP LOG2 PUSH5 0x6970667358 0x22 SLT KECCAK256 ADDRESS 0x29 SMOD 0xD 0xE DUP9 0xD1 0x29 PUSH6 0x2D96684A109A SHL 0xCC BLOBHASH 0xAE PUSH29 0xA7CB29F7BEE77EE1C4EFDEFA64736F6C634300081C0033000000000000 "},"methodIdentifiers":{"DECIMALS()":"2e0f2625","MAX_PARTICIPANTS()":"f3baf070","MAX_STAKE_PER_USER()":"8517e93c","claim()":"4e71d92d","impliedYesBps()":"9fced106","noOf(address)":"b7c73233","noPoolMultiplierE4()":"d2da86be","outcome()":"27793f87","owner()":"8da5cb5b","participantAt(uint256)":"065bab2d","participantCount()":"362f04c0","placeBet(bool,uint256)":"f7f74b22","renounceOwnership()":"715018a6","resolve(uint8)":"a0270dbc","resolved()":"3f6fa655","totalNo()":"af008883","totalYes()":"88ba8dd6","transferOwnership(address)":"f2fde38b","usdc()":"3e413bee","yesOf(address)":"6f360bb8","yesPoolMultiplierE4()":"374a8658"}}}}}