{
  "_format": "hh3-artifact-1",
  "contractName": "PoolBinaryMarket",
  "sourceName": "contracts/PoolBinaryMarket.sol",
  "abi": [
    {
      "inputs": [
        {
          "internalType": "address",
          "name": "_usdc",
          "type": "address"
        }
      ],
      "stateMutability": "nonpayable",
      "type": "constructor"
    },
    {
      "inputs": [
        {
          "internalType": "address",
          "name": "owner",
          "type": "address"
        }
      ],
      "name": "OwnableInvalidOwner",
      "type": "error"
    },
    {
      "inputs": [
        {
          "internalType": "address",
          "name": "account",
          "type": "address"
        }
      ],
      "name": "OwnableUnauthorizedAccount",
      "type": "error"
    },
    {
      "inputs": [],
      "name": "ReentrancyGuardReentrantCall",
      "type": "error"
    },
    {
      "anonymous": false,
      "inputs": [
        {
          "indexed": true,
          "internalType": "address",
          "name": "user",
          "type": "address"
        },
        {
          "indexed": false,
          "internalType": "bool",
          "name": "yesSide",
          "type": "bool"
        },
        {
          "indexed": false,
          "internalType": "uint256",
          "name": "amount",
          "type": "uint256"
        }
      ],
      "name": "BetPlaced",
      "type": "event"
    },
    {
      "anonymous": false,
      "inputs": [
        {
          "indexed": true,
          "internalType": "address",
          "name": "user",
          "type": "address"
        },
        {
          "indexed": false,
          "internalType": "uint256",
          "name": "amount",
          "type": "uint256"
        }
      ],
      "name": "Claimed",
      "type": "event"
    },
    {
      "anonymous": false,
      "inputs": [
        {
          "indexed": false,
          "internalType": "enum PoolBinaryMarket.Outcome",
          "name": "o",
          "type": "uint8"
        }
      ],
      "name": "MarketResolved",
      "type": "event"
    },
    {
      "anonymous": false,
      "inputs": [
        {
          "indexed": true,
          "internalType": "address",
          "name": "previousOwner",
          "type": "address"
        },
        {
          "indexed": true,
          "internalType": "address",
          "name": "newOwner",
          "type": "address"
        }
      ],
      "name": "OwnershipTransferred",
      "type": "event"
    },
    {
      "inputs": [],
      "name": "DECIMALS",
      "outputs": [
        {
          "internalType": "uint8",
          "name": "",
          "type": "uint8"
        }
      ],
      "stateMutability": "view",
      "type": "function"
    },
    {
      "inputs": [],
      "name": "MAX_PARTICIPANTS",
      "outputs": [
        {
          "internalType": "uint256",
          "name": "",
          "type": "uint256"
        }
      ],
      "stateMutability": "view",
      "type": "function"
    },
    {
      "inputs": [],
      "name": "MAX_STAKE_PER_USER",
      "outputs": [
        {
          "internalType": "uint256",
          "name": "",
          "type": "uint256"
        }
      ],
      "stateMutability": "view",
      "type": "function"
    },
    {
      "inputs": [],
      "name": "claim",
      "outputs": [],
      "stateMutability": "nonpayable",
      "type": "function"
    },
    {
      "inputs": [],
      "name": "impliedYesBps",
      "outputs": [
        {
          "internalType": "uint256",
          "name": "",
          "type": "uint256"
        }
      ],
      "stateMutability": "view",
      "type": "function"
    },
    {
      "inputs": [
        {
          "internalType": "address",
          "name": "",
          "type": "address"
        }
      ],
      "name": "noOf",
      "outputs": [
        {
          "internalType": "uint256",
          "name": "",
          "type": "uint256"
        }
      ],
      "stateMutability": "view",
      "type": "function"
    },
    {
      "inputs": [],
      "name": "noPoolMultiplierE4",
      "outputs": [
        {
          "internalType": "uint256",
          "name": "",
          "type": "uint256"
        }
      ],
      "stateMutability": "view",
      "type": "function"
    },
    {
      "inputs": [],
      "name": "outcome",
      "outputs": [
        {
          "internalType": "enum PoolBinaryMarket.Outcome",
          "name": "",
          "type": "uint8"
        }
      ],
      "stateMutability": "view",
      "type": "function"
    },
    {
      "inputs": [],
      "name": "owner",
      "outputs": [
        {
          "internalType": "address",
          "name": "",
          "type": "address"
        }
      ],
      "stateMutability": "view",
      "type": "function"
    },
    {
      "inputs": [
        {
          "internalType": "uint256",
          "name": "i",
          "type": "uint256"
        }
      ],
      "name": "participantAt",
      "outputs": [
        {
          "internalType": "address",
          "name": "",
          "type": "address"
        }
      ],
      "stateMutability": "view",
      "type": "function"
    },
    {
      "inputs": [],
      "name": "participantCount",
      "outputs": [
        {
          "internalType": "uint256",
          "name": "",
          "type": "uint256"
        }
      ],
      "stateMutability": "view",
      "type": "function"
    },
    {
      "inputs": [
        {
          "internalType": "bool",
          "name": "yes",
          "type": "bool"
        },
        {
          "internalType": "uint256",
          "name": "amount",
          "type": "uint256"
        }
      ],
      "name": "placeBet",
      "outputs": [],
      "stateMutability": "nonpayable",
      "type": "function"
    },
    {
      "inputs": [],
      "name": "renounceOwnership",
      "outputs": [],
      "stateMutability": "nonpayable",
      "type": "function"
    },
    {
      "inputs": [
        {
          "internalType": "enum PoolBinaryMarket.Outcome",
          "name": "o",
          "type": "uint8"
        }
      ],
      "name": "resolve",
      "outputs": [],
      "stateMutability": "nonpayable",
      "type": "function"
    },
    {
      "inputs": [],
      "name": "resolved",
      "outputs": [
        {
          "internalType": "bool",
          "name": "",
          "type": "bool"
        }
      ],
      "stateMutability": "view",
      "type": "function"
    },
    {
      "inputs": [],
      "name": "totalNo",
      "outputs": [
        {
          "internalType": "uint256",
          "name": "",
          "type": "uint256"
        }
      ],
      "stateMutability": "view",
      "type": "function"
    },
    {
      "inputs": [],
      "name": "totalYes",
      "outputs": [
        {
          "internalType": "uint256",
          "name": "",
          "type": "uint256"
        }
      ],
      "stateMutability": "view",
      "type": "function"
    },
    {
      "inputs": [
        {
          "internalType": "address",
          "name": "newOwner",
          "type": "address"
        }
      ],
      "name": "transferOwnership",
      "outputs": [],
      "stateMutability": "nonpayable",
      "type": "function"
    },
    {
      "inputs": [],
      "name": "usdc",
      "outputs": [
        {
          "internalType": "contract IERC20",
          "name": "",
          "type": "address"
        }
      ],
      "stateMutability": "view",
      "type": "function"
    },
    {
      "inputs": [
        {
          "internalType": "address",
          "name": "",
          "type": "address"
        }
      ],
      "name": "yesOf",
      "outputs": [
        {
          "internalType": "uint256",
          "name": "",
          "type": "uint256"
        }
      ],
      "stateMutability": "view",
      "type": "function"
    },
    {
      "inputs": [],
      "name": "yesPoolMultiplierE4",
      "outputs": [
        {
          "internalType": "uint256",
          "name": "",
          "type": "uint256"
        }
      ],
      "stateMutability": "view",
      "type": "function"
    }
  ],
  "bytecode": "0x60a060405234801561000f575f5ffd5b5060405161113938038061113983398101604081905261002e916100e1565b338061005357604051631e4fbdf760e01b81525f600482015260240160405180910390fd5b61005c81610092565b5060017f9b779b17422d0df92223018b32b4d1fa46e071723d6817e2486d003becc55f00556001600160a01b031660805261010e565b5f80546001600160a01b038381166001600160a01b0319831681178455604051919092169283917f8be0079c531659141344cd1fd0a4f28419497f9722a3daafe3b4186f6b6457e09190a35050565b5f602082840312156100f1575f5ffd5b81516001600160a01b0381168114610107575f5ffd5b9392505050565b6080516110056101345f395f81816101bf015281816105970152610b0e01526110055ff3fe608060405234801561000f575f5ffd5b5060043610610132575f3560e01c80638517e93c116100b4578063af00888311610079578063af0088831461026b578063b7c7323314610274578063d2da86be14610293578063f2fde38b1461029b578063f3baf070146102ae578063f7f74b22146102b6575f5ffd5b80638517e93c1461022f57806388ba8dd6146102375780638da5cb5b146102405780639fced10614610250578063a0270dbc14610258575f5ffd5b80633e413bee116100fa5780633e413bee146101ba5780633f6fa655146101e15780634e71d92d146101fe5780636f360bb814610208578063715018a614610227575f5ffd5b8063065bab2d1461013657806327793f87146101665780632e0f262514610186578063362f04c0146101a0578063374a8658146101b2575b5f5ffd5b610149610144366004610d5c565b6102c9565b6040516001600160a01b0390911681526020015b60405180910390f35b5f5461017990600160a01b900460ff1681565b60405161015d9190610d87565b61018e600681565b60405160ff909116815260200161015d565b6005545b60405190815260200161015d565b6101a46102f7565b6101497f000000000000000000000000000000000000000000000000000000000000000081565b6007546101ee9060ff1681565b604051901515815260200161015d565b610206610331565b005b6101a4610216366004610dad565b60036020525f908152604090205481565b61020661068c565b6101a461069d565b6101a460015481565b5f546001600160a01b0316610149565b6101a46106b8565b610206610266366004610dda565b6106fd565b6101a460025481565b6101a4610282366004610dad565b60046020525f908152604090205481565b6101a4610831565b6102066102a9366004610dad565b610851565b6101a4600a81565b6102066102c4366004610e05565b61088e565b5f600582815481106102dd576102dd610e2f565b5f918252602090912001546001600160a01b031692915050565b5f6001545f0361030657505f90565b6001546002546103169082610e57565b61032290612710610e70565b61032c9190610e87565b905090565b610339610c97565b60075460ff1661037f5760405162461bcd60e51b815260206004820152600c60248201526b1b9bdd081c995cdbdb1d995960a21b60448201526064015b60405180910390fd5b5f5f54600160a01b900460ff16600281111561039d5761039d610d73565b036103d75760405162461bcd60e51b815260206004820152600a6024820152696e6f206f7574636f6d6560b01b6044820152606401610376565b5f60015f54600160a01b900460ff1660028111156103f7576103f7610d73565b036104a057335f908152600360205260409020548061044f5760405162461bcd60e51b81526020600482015260146024820152736e6f2077696e6e696e6720594553207374616b6560601b6044820152606401610376565b5f6002546001546104609190610e57565b6001549091506104708383610e70565b61047a9190610e87565b335f9081526003602090815260408083208390556004909152812055925061053e915050565b335f90815260046020526040902054806104f25760405162461bcd60e51b81526020600482015260136024820152726e6f2077696e6e696e67204e4f207374616b6560681b6044820152606401610376565b5f6002546001546105039190610e57565b6002549091506105138383610e70565b61051d9190610e87565b335f9081526004602090815260408083208390556003909152812055925050505b5f811161057b5760405162461bcd60e51b815260206004820152600b60248201526a1e995c9bc81c185e5bdd5d60aa1b6044820152606401610376565b60405163a9059cbb60e01b8152336004820152602481018290527f00000000000000000000000000000000000000000000000000000000000000006001600160a01b03169063a9059cbb906044016020604051808303815f875af11580156105e5573d5f5f3e3d5ffd5b505050506040513d601f19601f820116820180604052508101906106099190610ea6565b61063e5760405162461bcd60e51b81526020600482015260066024820152651c185e5bdd5d60d21b6044820152606401610376565b60405181815233907fd8138f8a3f377c5259ca548e70e4c2de94f129f5a11036a15b69513cba2b426a9060200160405180910390a25061068a60015f516020610fb05f395f51905f5255565b565b610694610cb2565b61068a5f610cde565b6106a96006600a610fa4565b6106b5906103e8610e70565b81565b5f5f6002546001546106ca9190610e57565b9050805f036106dc5761138891505090565b806001546127106106ed9190610e70565b6106f79190610e87565b91505090565b610705610cb2565b600181600281111561071957610719610d73565b14806107365750600281600281111561073457610734610d73565b145b61076c5760405162461bcd60e51b81526020600482015260076024820152661a5b9d985b1a5960ca1b6044820152606401610376565b5f5f54600160a01b900460ff16600281111561078a5761078a610d73565b146107c15760405162461bcd60e51b8152602060048201526007602482015266616c726561647960c81b6044820152606401610376565b6007805460ff191660011790555f805482919060ff60a01b1916600160a01b8360028111156107f2576107f2610d73565b02179055507f94e5f71d5001613eb5e4ad876acb1da127582270c692c34fbcf810be21728b1d816040516108269190610d87565b60405180910390a150565b5f6002545f0361084057505f90565b600254600154610316908290610e57565b610859610cb2565b6001600160a01b03811661088257604051631e4fbdf760e01b81525f6004820152602401610376565b61088b81610cde565b50565b610896610c97565b60075460ff16156108d45760405162461bcd60e51b81526020600482015260086024820152671c995cdbdb1d995960c21b6044820152606401610376565b5f811161090c5760405162461bcd60e51b8152602060048201526006602482015265185b5bdd5b9d60d21b6044820152606401610376565b335f9081526004602090815260408083205460039092528220546109309190610e57565b905061093e6006600a610fa4565b61094a906103e8610e70565b6109548383610e57565b11156109965760405162461bcd60e51b815260206004820152601160248201527007065722d7573657220636170203130303607c1b6044820152606401610376565b82156109ed57335f90815260046020526040902054156109e85760405162461bcd60e51b815260206004820152600d60248201526c6f6e652073696465206f6e6c7960981b6044820152606401610376565b610a39565b335f9081526003602052604090205415610a395760405162461bcd60e51b815260206004820152600d60248201526c6f6e652073696465206f6e6c7960981b6044820152606401610376565b335f9081526006602052604090205460ff16610aea57600554600a11610a905760405162461bcd60e51b815260206004820152600c60248201526b6d617820313020757365727360a01b6044820152606401610376565b6005805460018181019092557f036b6384b5eca791c62761152d0c79bb0604c104a5fb6f4eb0703f3154bb3db00180546001600160a01b031916339081179091555f908152600660205260409020805460ff191690911790555b6040516323b872dd60e01b8152336004820152306024820152604481018390525f907f00000000000000000000000000000000000000000000000000000000000000006001600160a01b0316906323b872dd906064016020604051808303815f875af1158015610b5c573d5f5f3e3d5ffd5b505050506040513d601f19601f82011682018060405250810190610b809190610ea6565b905080610bbf5760405162461bcd60e51b815260206004820152600d60248201526c2aa9a221903a3930b739b332b960991b6044820152606401610376565b8315610c04578260015f828254610bd69190610e57565b9091555050335f9081526003602052604081208054859290610bf9908490610e57565b90915550610c3e9050565b8260025f828254610c159190610e57565b9091555050335f9081526004602052604081208054859290610c38908490610e57565b90915550505b6040805185151581526020810185905233917fe57fa5a543ebcdebf2a7d7102ac913e14454cec006468e43a6916e95bdfcea9e910160405180910390a25050610c9360015f516020610fb05f395f51905f5255565b5050565b610c9f610d2d565b60025f516020610fb05f395f51905f5255565b5f546001600160a01b0316331461068a5760405163118cdaa760e01b8152336004820152602401610376565b5f80546001600160a01b038381166001600160a01b0319831681178455604051919092169283917f8be0079c531659141344cd1fd0a4f28419497f9722a3daafe3b4186f6b6457e09190a35050565b5f516020610fb05f395f51905f525460020361068a57604051633ee5aeb560e01b815260040160405180910390fd5b5f60208284031215610d6c575f5ffd5b5035919050565b634e487b7160e01b5f52602160045260245ffd5b6020810160038310610da757634e487b7160e01b5f52602160045260245ffd5b91905290565b5f60208284031215610dbd575f5ffd5b81356001600160a01b0381168114610dd3575f5ffd5b9392505050565b5f60208284031215610dea575f5ffd5b813560038110610dd3575f5ffd5b801515811461088b575f5ffd5b5f5f60408385031215610e16575f5ffd5b8235610e2181610df8565b946020939093013593505050565b634e487b7160e01b5f52603260045260245ffd5b634e487b7160e01b5f52601160045260245ffd5b80820180821115610e6a57610e6a610e43565b92915050565b8082028115828204841417610e6a57610e6a610e43565b5f82610ea157634e487b7160e01b5f52601260045260245ffd5b500490565b5f60208284031215610eb6575f5ffd5b8151610dd381610df8565b6001815b6001841115610efc57808504811115610ee057610ee0610e43565b6001841615610eee57908102905b60019390931c928002610ec5565b935093915050565b5f82610f1257506001610e6a565b81610f1e57505f610e6a565b8160018114610f345760028114610f3e57610f5a565b6001915050610e6a565b60ff841115610f4f57610f4f610e43565b50506001821b610e6a565b5060208310610133831016604e8410600b8410161715610f7d575081810a610e6a565b610f895f198484610ec1565b805f1904821115610f9c57610f9c610e43565b029392505050565b5f610dd38383610f0456fe9b779b17422d0df92223018b32b4d1fa46e071723d6817e2486d003becc55f00a26469706673582212203029070d0e88d129652d96684a109a1bcc49ae7ca7cb29f7bee77ee1c4efdefa64736f6c634300081c0033",
  "linkReferences": {},
  "deployedLinkReferences": {},
  "immutableReferences": {
    "505": [
      {
        "length": 32,
        "start": 447
      },
      {
        "length": 32,
        "start": 1431
      },
      {
        "length": 32,
        "start": 2830
      }
    ]
  },
  "inputSourceName": "project/contracts/PoolBinaryMarket.sol",
  "buildInfoId": "solc-0_8_28-095342dc3a51879f9c5206a5f0276c6828dfdee0"
}