{
  "_format": "hh3-artifact-1",
  "contractName": "PolyPredict",
  "sourceName": "contracts/PolyPredict.sol",
  "abi": [
    {
      "inputs": [
        {
          "internalType": "address",
          "name": "_usdc",
          "type": "address"
        }
      ],
      "stateMutability": "nonpayable",
      "type": "constructor"
    },
    {
      "inputs": [
        {
          "internalType": "address",
          "name": "sender",
          "type": "address"
        },
        {
          "internalType": "uint256",
          "name": "balance",
          "type": "uint256"
        },
        {
          "internalType": "uint256",
          "name": "needed",
          "type": "uint256"
        },
        {
          "internalType": "uint256",
          "name": "tokenId",
          "type": "uint256"
        }
      ],
      "name": "ERC1155InsufficientBalance",
      "type": "error"
    },
    {
      "inputs": [
        {
          "internalType": "address",
          "name": "approver",
          "type": "address"
        }
      ],
      "name": "ERC1155InvalidApprover",
      "type": "error"
    },
    {
      "inputs": [
        {
          "internalType": "uint256",
          "name": "idsLength",
          "type": "uint256"
        },
        {
          "internalType": "uint256",
          "name": "valuesLength",
          "type": "uint256"
        }
      ],
      "name": "ERC1155InvalidArrayLength",
      "type": "error"
    },
    {
      "inputs": [
        {
          "internalType": "address",
          "name": "operator",
          "type": "address"
        }
      ],
      "name": "ERC1155InvalidOperator",
      "type": "error"
    },
    {
      "inputs": [
        {
          "internalType": "address",
          "name": "receiver",
          "type": "address"
        }
      ],
      "name": "ERC1155InvalidReceiver",
      "type": "error"
    },
    {
      "inputs": [
        {
          "internalType": "address",
          "name": "sender",
          "type": "address"
        }
      ],
      "name": "ERC1155InvalidSender",
      "type": "error"
    },
    {
      "inputs": [
        {
          "internalType": "address",
          "name": "operator",
          "type": "address"
        },
        {
          "internalType": "address",
          "name": "owner",
          "type": "address"
        }
      ],
      "name": "ERC1155MissingApprovalForAll",
      "type": "error"
    },
    {
      "inputs": [
        {
          "internalType": "address",
          "name": "owner",
          "type": "address"
        }
      ],
      "name": "OwnableInvalidOwner",
      "type": "error"
    },
    {
      "inputs": [
        {
          "internalType": "address",
          "name": "account",
          "type": "address"
        }
      ],
      "name": "OwnableUnauthorizedAccount",
      "type": "error"
    },
    {
      "inputs": [],
      "name": "ReentrancyGuardReentrantCall",
      "type": "error"
    },
    {
      "anonymous": false,
      "inputs": [
        {
          "indexed": true,
          "internalType": "address",
          "name": "account",
          "type": "address"
        },
        {
          "indexed": true,
          "internalType": "address",
          "name": "operator",
          "type": "address"
        },
        {
          "indexed": false,
          "internalType": "bool",
          "name": "approved",
          "type": "bool"
        }
      ],
      "name": "ApprovalForAll",
      "type": "event"
    },
    {
      "anonymous": false,
      "inputs": [
        {
          "indexed": true,
          "internalType": "uint256",
          "name": "marketId",
          "type": "uint256"
        },
        {
          "indexed": false,
          "internalType": "string",
          "name": "question",
          "type": "string"
        },
        {
          "indexed": false,
          "internalType": "string",
          "name": "category",
          "type": "string"
        },
        {
          "indexed": false,
          "internalType": "uint256",
          "name": "deadline",
          "type": "uint256"
        }
      ],
      "name": "MarketCreated",
      "type": "event"
    },
    {
      "anonymous": false,
      "inputs": [
        {
          "indexed": true,
          "internalType": "uint256",
          "name": "marketId",
          "type": "uint256"
        },
        {
          "indexed": false,
          "internalType": "enum PolyPredict.Outcome",
          "name": "outcome",
          "type": "uint8"
        }
      ],
      "name": "MarketResolved",
      "type": "event"
    },
    {
      "anonymous": false,
      "inputs": [
        {
          "indexed": true,
          "internalType": "address",
          "name": "previousOwner",
          "type": "address"
        },
        {
          "indexed": true,
          "internalType": "address",
          "name": "newOwner",
          "type": "address"
        }
      ],
      "name": "OwnershipTransferred",
      "type": "event"
    },
    {
      "anonymous": false,
      "inputs": [
        {
          "indexed": true,
          "internalType": "uint256",
          "name": "marketId",
          "type": "uint256"
        },
        {
          "indexed": true,
          "internalType": "address",
          "name": "burner",
          "type": "address"
        },
        {
          "indexed": false,
          "internalType": "uint256",
          "name": "amount",
          "type": "uint256"
        }
      ],
      "name": "SharesBurned",
      "type": "event"
    },
    {
      "anonymous": false,
      "inputs": [
        {
          "indexed": true,
          "internalType": "uint256",
          "name": "marketId",
          "type": "uint256"
        },
        {
          "indexed": true,
          "internalType": "address",
          "name": "buyer",
          "type": "address"
        },
        {
          "indexed": false,
          "internalType": "uint256",
          "name": "amount",
          "type": "uint256"
        }
      ],
      "name": "SharesMinted",
      "type": "event"
    },
    {
      "anonymous": false,
      "inputs": [
        {
          "indexed": true,
          "internalType": "address",
          "name": "operator",
          "type": "address"
        },
        {
          "indexed": true,
          "internalType": "address",
          "name": "from",
          "type": "address"
        },
        {
          "indexed": true,
          "internalType": "address",
          "name": "to",
          "type": "address"
        },
        {
          "indexed": false,
          "internalType": "uint256[]",
          "name": "ids",
          "type": "uint256[]"
        },
        {
          "indexed": false,
          "internalType": "uint256[]",
          "name": "values",
          "type": "uint256[]"
        }
      ],
      "name": "TransferBatch",
      "type": "event"
    },
    {
      "anonymous": false,
      "inputs": [
        {
          "indexed": true,
          "internalType": "address",
          "name": "operator",
          "type": "address"
        },
        {
          "indexed": true,
          "internalType": "address",
          "name": "from",
          "type": "address"
        },
        {
          "indexed": true,
          "internalType": "address",
          "name": "to",
          "type": "address"
        },
        {
          "indexed": false,
          "internalType": "uint256",
          "name": "id",
          "type": "uint256"
        },
        {
          "indexed": false,
          "internalType": "uint256",
          "name": "value",
          "type": "uint256"
        }
      ],
      "name": "TransferSingle",
      "type": "event"
    },
    {
      "anonymous": false,
      "inputs": [
        {
          "indexed": false,
          "internalType": "string",
          "name": "value",
          "type": "string"
        },
        {
          "indexed": true,
          "internalType": "uint256",
          "name": "id",
          "type": "uint256"
        }
      ],
      "name": "URI",
      "type": "event"
    },
    {
      "anonymous": false,
      "inputs": [
        {
          "indexed": true,
          "internalType": "uint256",
          "name": "marketId",
          "type": "uint256"
        },
        {
          "indexed": true,
          "internalType": "address",
          "name": "claimer",
          "type": "address"
        },
        {
          "indexed": false,
          "internalType": "uint256",
          "name": "usdcAmount",
          "type": "uint256"
        }
      ],
      "name": "WinningsClaimed",
      "type": "event"
    },
    {
      "inputs": [
        {
          "internalType": "address",
          "name": "account",
          "type": "address"
        },
        {
          "internalType": "uint256",
          "name": "id",
          "type": "uint256"
        }
      ],
      "name": "balanceOf",
      "outputs": [
        {
          "internalType": "uint256",
          "name": "",
          "type": "uint256"
        }
      ],
      "stateMutability": "view",
      "type": "function"
    },
    {
      "inputs": [
        {
          "internalType": "address[]",
          "name": "accounts",
          "type": "address[]"
        },
        {
          "internalType": "uint256[]",
          "name": "ids",
          "type": "uint256[]"
        }
      ],
      "name": "balanceOfBatch",
      "outputs": [
        {
          "internalType": "uint256[]",
          "name": "",
          "type": "uint256[]"
        }
      ],
      "stateMutability": "view",
      "type": "function"
    },
    {
      "inputs": [
        {
          "internalType": "uint256",
          "name": "_marketId",
          "type": "uint256"
        },
        {
          "internalType": "uint256",
          "name": "_amount",
          "type": "uint256"
        }
      ],
      "name": "burnShares",
      "outputs": [],
      "stateMutability": "nonpayable",
      "type": "function"
    },
    {
      "inputs": [
        {
          "internalType": "uint256",
          "name": "_marketId",
          "type": "uint256"
        }
      ],
      "name": "claimWinnings",
      "outputs": [],
      "stateMutability": "nonpayable",
      "type": "function"
    },
    {
      "inputs": [
        {
          "internalType": "string",
          "name": "_question",
          "type": "string"
        },
        {
          "internalType": "string",
          "name": "_description",
          "type": "string"
        },
        {
          "internalType": "string",
          "name": "_category",
          "type": "string"
        },
        {
          "internalType": "string",
          "name": "_outcomeYes",
          "type": "string"
        },
        {
          "internalType": "string",
          "name": "_outcomeNo",
          "type": "string"
        },
        {
          "internalType": "uint256",
          "name": "_deadline",
          "type": "uint256"
        }
      ],
      "name": "createMarket",
      "outputs": [
        {
          "internalType": "uint256",
          "name": "marketId",
          "type": "uint256"
        }
      ],
      "stateMutability": "nonpayable",
      "type": "function"
    },
    {
      "inputs": [
        {
          "internalType": "uint256",
          "name": "_marketId",
          "type": "uint256"
        }
      ],
      "name": "getMarket",
      "outputs": [
        {
          "components": [
            {
              "internalType": "string",
              "name": "question",
              "type": "string"
            },
            {
              "internalType": "string",
              "name": "description",
              "type": "string"
            },
            {
              "internalType": "string",
              "name": "category",
              "type": "string"
            },
            {
              "internalType": "string",
              "name": "outcomeYes",
              "type": "string"
            },
            {
              "internalType": "string",
              "name": "outcomeNo",
              "type": "string"
            },
            {
              "internalType": "uint256",
              "name": "deadline",
              "type": "uint256"
            },
            {
              "internalType": "enum PolyPredict.MarketState",
              "name": "state",
              "type": "uint8"
            },
            {
              "internalType": "enum PolyPredict.Outcome",
              "name": "outcome",
              "type": "uint8"
            },
            {
              "internalType": "uint256",
              "name": "totalCollateral",
              "type": "uint256"
            }
          ],
          "internalType": "struct PolyPredict.Market",
          "name": "",
          "type": "tuple"
        }
      ],
      "stateMutability": "view",
      "type": "function"
    },
    {
      "inputs": [
        {
          "internalType": "uint256",
          "name": "_marketId",
          "type": "uint256"
        },
        {
          "internalType": "address",
          "name": "_user",
          "type": "address"
        }
      ],
      "name": "getShareBalances",
      "outputs": [
        {
          "internalType": "uint256",
          "name": "yesBalance",
          "type": "uint256"
        },
        {
          "internalType": "uint256",
          "name": "noBalance",
          "type": "uint256"
        }
      ],
      "stateMutability": "view",
      "type": "function"
    },
    {
      "inputs": [
        {
          "internalType": "uint256",
          "name": "_marketId",
          "type": "uint256"
        }
      ],
      "name": "getTokenIds",
      "outputs": [
        {
          "internalType": "uint256",
          "name": "yesId",
          "type": "uint256"
        },
        {
          "internalType": "uint256",
          "name": "noId",
          "type": "uint256"
        }
      ],
      "stateMutability": "pure",
      "type": "function"
    },
    {
      "inputs": [
        {
          "internalType": "address",
          "name": "account",
          "type": "address"
        },
        {
          "internalType": "address",
          "name": "operator",
          "type": "address"
        }
      ],
      "name": "isApprovedForAll",
      "outputs": [
        {
          "internalType": "bool",
          "name": "",
          "type": "bool"
        }
      ],
      "stateMutability": "view",
      "type": "function"
    },
    {
      "inputs": [],
      "name": "marketCount",
      "outputs": [
        {
          "internalType": "uint256",
          "name": "",
          "type": "uint256"
        }
      ],
      "stateMutability": "view",
      "type": "function"
    },
    {
      "inputs": [
        {
          "internalType": "uint256",
          "name": "",
          "type": "uint256"
        }
      ],
      "name": "markets",
      "outputs": [
        {
          "internalType": "string",
          "name": "question",
          "type": "string"
        },
        {
          "internalType": "string",
          "name": "description",
          "type": "string"
        },
        {
          "internalType": "string",
          "name": "category",
          "type": "string"
        },
        {
          "internalType": "string",
          "name": "outcomeYes",
          "type": "string"
        },
        {
          "internalType": "string",
          "name": "outcomeNo",
          "type": "string"
        },
        {
          "internalType": "uint256",
          "name": "deadline",
          "type": "uint256"
        },
        {
          "internalType": "enum PolyPredict.MarketState",
          "name": "state",
          "type": "uint8"
        },
        {
          "internalType": "enum PolyPredict.Outcome",
          "name": "outcome",
          "type": "uint8"
        },
        {
          "internalType": "uint256",
          "name": "totalCollateral",
          "type": "uint256"
        }
      ],
      "stateMutability": "view",
      "type": "function"
    },
    {
      "inputs": [
        {
          "internalType": "uint256",
          "name": "_marketId",
          "type": "uint256"
        },
        {
          "internalType": "uint256",
          "name": "_amount",
          "type": "uint256"
        }
      ],
      "name": "mintShares",
      "outputs": [],
      "stateMutability": "nonpayable",
      "type": "function"
    },
    {
      "inputs": [],
      "name": "owner",
      "outputs": [
        {
          "internalType": "address",
          "name": "",
          "type": "address"
        }
      ],
      "stateMutability": "view",
      "type": "function"
    },
    {
      "inputs": [],
      "name": "renounceOwnership",
      "outputs": [],
      "stateMutability": "nonpayable",
      "type": "function"
    },
    {
      "inputs": [
        {
          "internalType": "uint256",
          "name": "_marketId",
          "type": "uint256"
        },
        {
          "internalType": "enum PolyPredict.Outcome",
          "name": "_outcome",
          "type": "uint8"
        }
      ],
      "name": "resolveMarket",
      "outputs": [],
      "stateMutability": "nonpayable",
      "type": "function"
    },
    {
      "inputs": [
        {
          "internalType": "address",
          "name": "from",
          "type": "address"
        },
        {
          "internalType": "address",
          "name": "to",
          "type": "address"
        },
        {
          "internalType": "uint256[]",
          "name": "ids",
          "type": "uint256[]"
        },
        {
          "internalType": "uint256[]",
          "name": "values",
          "type": "uint256[]"
        },
        {
          "internalType": "bytes",
          "name": "data",
          "type": "bytes"
        }
      ],
      "name": "safeBatchTransferFrom",
      "outputs": [],
      "stateMutability": "nonpayable",
      "type": "function"
    },
    {
      "inputs": [
        {
          "internalType": "address",
          "name": "from",
          "type": "address"
        },
        {
          "internalType": "address",
          "name": "to",
          "type": "address"
        },
        {
          "internalType": "uint256",
          "name": "id",
          "type": "uint256"
        },
        {
          "internalType": "uint256",
          "name": "value",
          "type": "uint256"
        },
        {
          "internalType": "bytes",
          "name": "data",
          "type": "bytes"
        }
      ],
      "name": "safeTransferFrom",
      "outputs": [],
      "stateMutability": "nonpayable",
      "type": "function"
    },
    {
      "inputs": [
        {
          "internalType": "address",
          "name": "operator",
          "type": "address"
        },
        {
          "internalType": "bool",
          "name": "approved",
          "type": "bool"
        }
      ],
      "name": "setApprovalForAll",
      "outputs": [],
      "stateMutability": "nonpayable",
      "type": "function"
    },
    {
      "inputs": [
        {
          "internalType": "bytes4",
          "name": "interfaceId",
          "type": "bytes4"
        }
      ],
      "name": "supportsInterface",
      "outputs": [
        {
          "internalType": "bool",
          "name": "",
          "type": "bool"
        }
      ],
      "stateMutability": "view",
      "type": "function"
    },
    {
      "inputs": [
        {
          "internalType": "address",
          "name": "newOwner",
          "type": "address"
        }
      ],
      "name": "transferOwnership",
      "outputs": [],
      "stateMutability": "nonpayable",
      "type": "function"
    },
    {
      "inputs": [
        {
          "internalType": "uint256",
          "name": "",
          "type": "uint256"
        }
      ],
      "name": "uri",
      "outputs": [
        {
          "internalType": "string",
          "name": "",
          "type": "string"
        }
      ],
      "stateMutability": "view",
      "type": "function"
    },
    {
      "inputs": [],
      "name": "usdc",
      "outputs": [
        {
          "internalType": "contract IERC20",
          "name": "",
          "type": "address"
        }
      ],
      "stateMutability": "view",
      "type": "function"
    }
  ],
  "bytecode": "0x60a060405234801561000f575f5ffd5b5060405161315338038061315383398101604081905261002e91610115565b60408051602081019091525f81523390610047816100b4565b506001600160a01b03811661007557604051631e4fbdf760e01b81525f600482015260240160405180910390fd5b61007e816100c4565b5060017f9b779b17422d0df92223018b32b4d1fa46e071723d6817e2486d003becc55f00556001600160a01b0316608052610294565b60026100c082826101da565b5050565b600380546001600160a01b038381166001600160a01b0319831681179093556040519116919082907f8be0079c531659141344cd1fd0a4f28419497f9722a3daafe3b4186f6b6457e0905f90a35050565b5f60208284031215610125575f5ffd5b81516001600160a01b038116811461013b575f5ffd5b9392505050565b634e487b7160e01b5f52604160045260245ffd5b600181811c9082168061016a57607f821691505b60208210810361018857634e487b7160e01b5f52602260045260245ffd5b50919050565b601f8211156101d557805f5260205f20601f840160051c810160208510156101b35750805b601f840160051c820191505b818110156101d2575f81556001016101bf565b50505b505050565b81516001600160401b038111156101f3576101f3610142565b610207816102018454610156565b8461018e565b6020601f821160018114610239575f83156102225750848201515b5f19600385901b1c1916600184901b1784556101d2565b5f84815260208120601f198516915b828110156102685787850151825560209485019460019092019101610248565b508482101561028557868401515f19600387901b60f8161c191681555b50505050600190811b01905550565b608051612e926102c15f395f81816101c30152818161079701528181610e0601526114e90152612e925ff3fe608060405234801561000f575f5ffd5b506004361061013c575f3560e01c80638da5cb5b116100b4578063e985e9c511610079578063e985e9c5146102f8578063eb28d05014610333578063eb44fdd314610346578063ec97908214610366578063f242432a1461036f578063f2fde38b14610382575f5ffd5b80638da5cb5b14610286578063a22cb46514610297578063b1283e77146102aa578063df55406e146102d2578063e3437888146102e5575f5ffd5b80634e1273f4116101055780634e1273f4146101fd57806357991d301461021d578063677bd9ff14610245578063715018a6146102585780637396153d146102605780637c6f512714610273575f5ffd5b8062fdd58e1461014057806301ffc9a7146101665780630e89341c146101895780632eb2c2d6146101a95780633e413bee146101be575b5f5ffd5b61015361014e366004612327565b610395565b6040519081526020015b60405180910390f35b610179610174366004612364565b6103bc565b604051901515815260200161015d565b61019c610197366004612386565b61040b565b60405161015d91906123cb565b6101bc6101b7366004612518565b61049d565b005b6101e57f000000000000000000000000000000000000000000000000000000000000000081565b6040516001600160a01b03909116815260200161015d565b61021061020b3660046125c4565b6104bc565b60405161015d91906126bf565b61023061022b366004612386565b61058b565b6040805192835260208301919091520161015d565b6101bc610253366004612386565b6105b7565b6101bc6108a4565b61015361026e366004612715565b6108b7565b6101bc610281366004612819565b610c2c565b6003546001600160a01b03166101e5565b6101bc6102a5366004612846565b610f13565b6102bd6102b8366004612386565b610f1e565b60405161015d999897969594939291906128b8565b6101bc6102e0366004612953565b61120b565b6101bc6102f3366004612819565b6113bd565b610179610306366004612979565b6001600160a01b039182165f90815260016020908152604080832093909416825291909152205460ff1690565b6102306103413660046129a1565b611649565b610359610354366004612386565b61167f565b60405161015d91906129c2565b61015360045481565b6101bc61037d366004612aa0565b611a3f565b6101bc610390366004612af3565b611a55565b5f818152602081815260408083206001600160a01b03861684529091529020545b92915050565b5f6001600160e01b03198216636cdb3d1360e11b14806103ec57506001600160e01b031982166303a24d0760e21b145b806103b657506301ffc9a760e01b6001600160e01b03198316146103b6565b60606002805461041a90612b0c565b80601f016020809104026020016040519081016040528092919081815260200182805461044690612b0c565b80156104915780601f1061046857610100808354040283529160200191610491565b820191905f5260205f20905b81548152906001019060200180831161047457829003601f168201915b50505050509050919050565b6104a8335b86611a8f565b6104b58585858585611b07565b5050505050565b606081518351146104f25781518351604051635b05999160e01b8152600481019290925260248201526044015b60405180910390fd5b5f83516001600160401b0381111561050c5761050c6123dd565b604051908082528060200260200182016040528015610535578160200160208202803683370190505b5090505f5b84518110156105835760208082028601015161055e90602080840287010151610395565b82828151811061057057610570612b44565b602090810291909101015260010161053a565b509392505050565b5f80610598836002612b6c565b91506105a5836002612b6c565b6105b0906001612b83565b9050915091565b6105bf611b67565b5f8181526005602052604090206002600682015460ff1660028111156105e7576105e761287b565b146106345760405162461bcd60e51b815260206004820152601760248201527f4d61726b6574206e6f74207265736f6c7665642079657400000000000000000060448201526064016104e9565b5f610640836002612b6c565b90505f61064e846002612b6c565b610659906001612b83565b90505f6106663384610395565b90505f6106733384610395565b90505f82118061068257505f81115b6106c35760405162461bcd60e51b81526020600482015260126024820152714e6f2073686172657320746f20636c61696d60701b60448201526064016104e9565b5f60016006870154610100900460ff1660028111156106e4576106e461287b565b0361071257508180156106fc576106fc338685611b82565b811561070d5761070d338584611b82565b610736565b5080801561072557610725338584611b82565b821561073657610736338685611b82565b5f81116107795760405162461bcd60e51b81526020600482015260116024820152704e6f2077696e6e696e672073686172657360781b60448201526064016104e9565b60405163a9059cbb60e01b8152336004820152602481018290525f907f00000000000000000000000000000000000000000000000000000000000000006001600160a01b03169063a9059cbb906044016020604051808303815f875af11580156107e5573d5f5f3e3d5ffd5b505050506040513d601f19601f820116820180604052508101906108099190612b96565b90508061084d5760405162461bcd60e51b81526020600482015260126024820152711554d110c81c185e5bdd5d0819985a5b195960721b60448201526064016104e9565b604051828152339089907f5380cf6fe903b40c6d5a9e0dfbca2f3a423f0a21520b4d5947ed5169bdba946d9060200160405180910390a3505050505050506108a160015f516020612e3d5f395f51905f5255565b50565b6108ac611be9565b6108b55f611c16565b565b5f6108c0611be9565b42821161090f5760405162461bcd60e51b815260206004820152601e60248201527f446561646c696e65206d75737420626520696e2074686520667574757265000060448201526064016104e9565b8461095c5760405162461bcd60e51b815260206004820152601a60248201527f4f7574636f6d6520594553206c6162656c20726571756972656400000000000060448201526064016104e9565b826109a95760405162461bcd60e51b815260206004820152601960248201527f4f7574636f6d65204e4f206c6162656c2072657175697265640000000000000060448201526064016104e9565b60048054905f6109b883612bb1565b9190505590506040518061012001604052808d8d8080601f0160208091040260200160405190810160405280939291908181526020018383808284375f92019190915250505090825250604080516020601f8e018190048102820181019092528c815291810191908d908d90819084018382808284375f92019190915250505090825250604080516020601f8c018190048102820181019092528a815291810191908b908b90819084018382808284375f92019190915250505090825250604080516020601f8a01819004810282018101909252888152918101919089908990819084018382808284375f92019190915250505090825250604080516020601f8801819004810282018101909252868152918101919087908790819084018382808284375f92018290525093855250505060208083018690526040808401839052606084018390526080909301829052848252600590522081518190610b1e9082612c12565b5060208201516001820190610b339082612c12565b5060408201516002820190610b489082612c12565b5060608201516003820190610b5d9082612c12565b5060808201516004820190610b729082612c12565b5060a0820151600582015560c082015160068201805460ff19166001836002811115610ba057610ba061287b565b021790555060e082015160068201805461ff001916610100836002811115610bca57610bca61287b565b02179055506101008201518160070155905050807f5efbba1029bf313d611dcc18db8c401465f4a191b59cc799da765ddbafa68e708d8d8b8b87604051610c15959493929190612cf4565b60405180910390a29b9a5050505050505050505050565b610c34611b67565b5f82815260056020526040812090600682015460ff166002811115610c5b57610c5b61287b565b14610c9d5760405162461bcd60e51b815260206004820152601260248201527126b0b935b2ba1034b9903737ba1037b832b760711b60448201526064016104e9565b5f8211610ce15760405162461bcd60e51b81526020600482015260126024820152710416d6f756e74206d757374206265203e20360741b60448201526064016104e9565b5f610ced846002612b6c565b90505f610cfb856002612b6c565b610d06906001612b83565b905083610d133384610395565b1015610d615760405162461bcd60e51b815260206004820152601860248201527f496e73756666696369656e74205945532062616c616e6365000000000000000060448201526064016104e9565b83610d6c3383610395565b1015610dba5760405162461bcd60e51b815260206004820152601760248201527f496e73756666696369656e74204e4f2062616c616e636500000000000000000060448201526064016104e9565b610dc5338386611b82565b610dd0338286611b82565b83836007015f828254610de39190612d2d565b909155505060405163a9059cbb60e01b8152336004820152602481018590525f907f00000000000000000000000000000000000000000000000000000000000000006001600160a01b03169063a9059cbb906044016020604051808303815f875af1158015610e54573d5f5f3e3d5ffd5b505050506040513d601f19601f82011682018060405250810190610e789190612b96565b905080610ebe5760405162461bcd60e51b81526020600482015260146024820152731554d110c81d1c985b9cd9995c8819985a5b195960621b60448201526064016104e9565b604051858152339087907e3195cc3cce6bd8cab724dba36b9fcdbd8b093db6771402b7b0ff3637f79070906020015b60405180910390a350505050610f0f60015f516020612e3d5f395f51905f5255565b5050565b610f0f338383611c67565b60056020525f9081526040902080548190610f3890612b0c565b80601f0160208091040260200160405190810160405280929190818152602001828054610f6490612b0c565b8015610faf5780601f10610f8657610100808354040283529160200191610faf565b820191905f5260205f20905b815481529060010190602001808311610f9257829003601f168201915b505050505090806001018054610fc490612b0c565b80601f0160208091040260200160405190810160405280929190818152602001828054610ff090612b0c565b801561103b5780601f106110125761010080835404028352916020019161103b565b820191905f5260205f20905b81548152906001019060200180831161101e57829003601f168201915b50505050509080600201805461105090612b0c565b80601f016020809104026020016040519081016040528092919081815260200182805461107c90612b0c565b80156110c75780601f1061109e576101008083540402835291602001916110c7565b820191905f5260205f20905b8154815290600101906020018083116110aa57829003601f168201915b5050505050908060030180546110dc90612b0c565b80601f016020809104026020016040519081016040528092919081815260200182805461110890612b0c565b80156111535780601f1061112a57610100808354040283529160200191611153565b820191905f5260205f20905b81548152906001019060200180831161113657829003601f168201915b50505050509080600401805461116890612b0c565b80601f016020809104026020016040519081016040528092919081815260200182805461119490612b0c565b80156111df5780601f106111b6576101008083540402835291602001916111df565b820191905f5260205f20905b8154815290600101906020018083116111c257829003601f168201915b505050600584015460068501546007909501549394909360ff8083169450610100909204909116915089565b611213611be9565b5f82815260056020526040812090600682015460ff16600281111561123a5761123a61287b565b146112875760405162461bcd60e51b815260206004820152601760248201527f4d61726b657420616c7265616479207265736f6c76656400000000000000000060448201526064016104e9565b80600501544210156112db5760405162461bcd60e51b815260206004820152601860248201527f446561646c696e65206e6f74207265616368656420796574000000000000000060448201526064016104e9565b60018260028111156112ef576112ef61287b565b148061130c5750600282600281111561130a5761130a61287b565b145b61134a5760405162461bcd60e51b815260206004820152600f60248201526e496e76616c6964206f7574636f6d6560881b60448201526064016104e9565b600681018054600260ff1982168117835584929161ffff191681179061010090849081111561137b5761137b61287b565b0217905550827f739f283563fb51ab6b89ee95d937b2e63a6cfcb83c385dbebb629f9d97bd43e6836040516113b09190612d40565b60405180910390a2505050565b6113c5611b67565b5f82815260056020526040812090600682015460ff1660028111156113ec576113ec61287b565b1461142e5760405162461bcd60e51b815260206004820152601260248201527126b0b935b2ba1034b9903737ba1037b832b760711b60448201526064016104e9565b806005015442106114815760405162461bcd60e51b815260206004820152601760248201527f42657474696e6720646561646c696e652070617373656400000000000000000060448201526064016104e9565b5f82116114c55760405162461bcd60e51b81526020600482015260126024820152710416d6f756e74206d757374206265203e20360741b60448201526064016104e9565b6040516323b872dd60e01b8152336004820152306024820152604481018390525f907f00000000000000000000000000000000000000000000000000000000000000006001600160a01b0316906323b872dd906064016020604051808303815f875af1158015611537573d5f5f3e3d5ffd5b505050506040513d601f19601f8201168201806040525081019061155b9190612b96565b9050806115a15760405162461bcd60e51b81526020600482015260146024820152731554d110c81d1c985b9cd9995c8819985a5b195960621b60448201526064016104e9565b82826007015f8282546115b49190612b83565b909155505f90506115c6856002612b6c565b90505f6115d4866002612b6c565b6115df906001612b83565b90506115fb33838760405180602001604052805f815250611d24565b61161533828760405180602001604052805f815250611d24565b604051858152339087907fb2b3cbe033aa38e93c0eb1ceee79d790e60008cbc021b10eed86e2fa214ae64590602001610eed565b5f8061165a8361014e866002612b6c565b91506116768361166b866002612b6c565b61014e906001612b83565b90509250929050565b6116876122b3565b60045482106116d05760405162461bcd60e51b815260206004820152601560248201527413585c9ad95d08191bd95cc81b9bdd08195e1a5cdd605a1b60448201526064016104e9565b5f8281526005602052604090819020815161012081019092528054829082906116f890612b0c565b80601f016020809104026020016040519081016040528092919081815260200182805461172490612b0c565b801561176f5780601f106117465761010080835404028352916020019161176f565b820191905f5260205f20905b81548152906001019060200180831161175257829003601f168201915b5050505050815260200160018201805461178890612b0c565b80601f01602080910402602001604051908101604052809291908181526020018280546117b490612b0c565b80156117ff5780601f106117d6576101008083540402835291602001916117ff565b820191905f5260205f20905b8154815290600101906020018083116117e257829003601f168201915b5050505050815260200160028201805461181890612b0c565b80601f016020809104026020016040519081016040528092919081815260200182805461184490612b0c565b801561188f5780601f106118665761010080835404028352916020019161188f565b820191905f5260205f20905b81548152906001019060200180831161187257829003601f168201915b505050505081526020016003820180546118a890612b0c565b80601f01602080910402602001604051908101604052809291908181526020018280546118d490612b0c565b801561191f5780601f106118f65761010080835404028352916020019161191f565b820191905f5260205f20905b81548152906001019060200180831161190257829003601f168201915b5050505050815260200160048201805461193890612b0c565b80601f016020809104026020016040519081016040528092919081815260200182805461196490612b0c565b80156119af5780601f10611986576101008083540402835291602001916119af565b820191905f5260205f20905b81548152906001019060200180831161199257829003601f168201915b505050918352505060058201546020820152600682015460409091019060ff1660028111156119e0576119e061287b565b60028111156119f1576119f161287b565b81526020016006820160019054906101000a900460ff166002811115611a1957611a1961287b565b6002811115611a2a57611a2a61287b565b81526020016007820154815250509050919050565b611a48336104a2565b6104b58585858585611d88565b611a5d611be9565b6001600160a01b038116611a8657604051631e4fbdf760e01b81525f60048201526024016104e9565b6108a181611c16565b816001600160a01b0316816001600160a01b031614158015611ad657506001600160a01b038082165f9081526001602090815260408083209386168352929052205460ff16155b15610f0f5760405163711bec9160e11b81526001600160a01b038084166004830152821660248201526044016104e9565b6001600160a01b038416611b3057604051632bfa23e760e11b81525f60048201526024016104e9565b6001600160a01b038516611b5857604051626a0d4560e21b81525f60048201526024016104e9565b6104b585858585856001611e15565b611b6f611e6d565b60025f516020612e3d5f395f51905f5255565b6001600160a01b038316611baa57604051626a0d4560e21b81525f60048201526024016104e9565b604080516001808252602082018590528183019081526060820184905260a082019092525f608082018181529192916104b59187918590859083611e15565b6003546001600160a01b031633146108b55760405163118cdaa760e01b81523360048201526024016104e9565b600380546001600160a01b038381166001600160a01b0319831681179093556040519116919082907f8be0079c531659141344cd1fd0a4f28419497f9722a3daafe3b4186f6b6457e0905f90a35050565b6001600160a01b038316611c9057604051631f18c42760e11b81525f60048201526024016104e9565b6001600160a01b038216611cb85760405162ced3e160e81b81525f60048201526024016104e9565b6001600160a01b038381165f81815260016020908152604080832094871680845294825291829020805460ff191686151590811790915591519182527f17307eab39ab6107e8899845ad3d59bd9653f200f220920489ca2b5937696c31910160405180910390a3505050565b6001600160a01b038416611d4d57604051632bfa23e760e11b81525f60048201526024016104e9565b60408051600180825260208201869052818301908152606082018590526080820190925290611d805f8784848784611e15565b505050505050565b6001600160a01b038416611db157604051632bfa23e760e11b81525f60048201526024016104e9565b6001600160a01b038516611dd957604051626a0d4560e21b81525f60048201526024016104e9565b60408051600180825260208201869052818301908152606082018590526080820190925290611e0c87878484875f611e15565b50505050505050565b611e2186868686611e9c565b6001600160a01b03851615611d8057338115611e4a57611e458188888888886120ab565b611e0c565b60208581015190850151611e62838a8a85858a6121cc565b505050505050505050565b5f516020612e3d5f395f51905f52546002036108b557604051633ee5aeb560e01b815260040160405180910390fd5b8051825114611ecb5781518151604051635b05999160e01b8152600481019290925260248201526044016104e9565b335f5b8351811015611fcd576020818102858101820151908501909101516001600160a01b03881615611f7f575f828152602081815260408083206001600160a01b038c16845290915290205481811015611f59576040516303dee4c560e01b81526001600160a01b038a1660048201526024810182905260448101839052606481018490526084016104e9565b5f838152602081815260408083206001600160a01b038d16845290915290209082900390555b6001600160a01b03871615611fc3575f828152602081815260408083206001600160a01b038b16845290915281208054839290611fbd908490612b83565b90915550505b5050600101611ece565b50825160010361204d5760208301515f906020840151909150856001600160a01b0316876001600160a01b0316846001600160a01b03167fc3d58168c5ae7397731d063d5bbf3d657854427343f4c083240f7aacaa2d0f62858560405161203e929190918252602082015260400190565b60405180910390a450506104b5565b836001600160a01b0316856001600160a01b0316826001600160a01b03167f4a39dc06d4c0dbc64b70af90fd698a233a518aa5d07e595d983b8c0526c8f7fb868660405161209c929190612d53565b60405180910390a45050505050565b6001600160a01b0384163b15611d805760405163bc197c8160e01b81526001600160a01b0385169063bc197c81906120ef9089908990889088908890600401612d80565b6020604051808303815f875af1925050508015612129575060408051601f3d908101601f1916820190925261212691810190612ddd565b60015b612190573d808015612156576040519150601f19603f3d011682016040523d82523d5f602084013e61215b565b606091505b5080515f0361218857604051632bfa23e760e11b81526001600160a01b03861660048201526024016104e9565b805160208201fd5b6001600160e01b0319811663bc197c8160e01b14611e0c57604051632bfa23e760e11b81526001600160a01b03861660048201526024016104e9565b6001600160a01b0384163b15611d805760405163f23a6e6160e01b81526001600160a01b0385169063f23a6e61906122109089908990889088908890600401612df8565b6020604051808303815f875af192505050801561224a575060408051601f3d908101601f1916820190925261224791810190612ddd565b60015b612277573d808015612156576040519150601f19603f3d011682016040523d82523d5f602084013e61215b565b6001600160e01b0319811663f23a6e6160e01b14611e0c57604051632bfa23e760e11b81526001600160a01b03861660048201526024016104e9565b60405180610120016040528060608152602001606081526020016060815260200160608152602001606081526020015f81526020015f60028111156122fa576122fa61287b565b81526020015f81526020015f81525090565b80356001600160a01b0381168114612322575f5ffd5b919050565b5f5f60408385031215612338575f5ffd5b6123418361230c565b946020939093013593505050565b6001600160e01b0319811681146108a1575f5ffd5b5f60208284031215612374575f5ffd5b813561237f8161234f565b9392505050565b5f60208284031215612396575f5ffd5b5035919050565b5f81518084528060208401602086015e5f602082860101526020601f19601f83011685010191505092915050565b602081525f61237f602083018461239d565b634e487b7160e01b5f52604160045260245ffd5b604051601f8201601f191681016001600160401b0381118282101715612419576124196123dd565b604052919050565b5f6001600160401b03821115612439576124396123dd565b5060051b60200190565b5f82601f830112612452575f5ffd5b813561246561246082612421565b6123f1565b8082825260208201915060208360051b860101925085831115612486575f5ffd5b602085015b838110156124a357803583526020928301920161248b565b5095945050505050565b5f82601f8301126124bc575f5ffd5b81356001600160401b038111156124d5576124d56123dd565b6124e8601f8201601f19166020016123f1565b8181528460208386010111156124fc575f5ffd5b816020850160208301375f918101602001919091529392505050565b5f5f5f5f5f60a0868803121561252c575f5ffd5b6125358661230c565b94506125436020870161230c565b935060408601356001600160401b0381111561255d575f5ffd5b61256988828901612443565b93505060608601356001600160401b03811115612584575f5ffd5b61259088828901612443565b92505060808601356001600160401b038111156125ab575f5ffd5b6125b7888289016124ad565b9150509295509295909350565b5f5f604083850312156125d5575f5ffd5b82356001600160401b038111156125ea575f5ffd5b8301601f810185136125fa575f5ffd5b803561260861246082612421565b8082825260208201915060208360051b850101925087831115612629575f5ffd5b6020840193505b82841015612652576126418461230c565b825260209384019390910190612630565b945050505060208301356001600160401b0381111561266f575f5ffd5b61267b85828601612443565b9150509250929050565b5f8151808452602084019350602083015f5b828110156126b5578151865260209586019590910190600101612697565b5093949350505050565b602081525f61237f6020830184612685565b5f5f83601f8401126126e1575f5ffd5b5081356001600160401b038111156126f7575f5ffd5b60208301915083602082850101111561270e575f5ffd5b9250929050565b5f5f5f5f5f5f5f5f5f5f5f60c08c8e03121561272f575f5ffd5b8b356001600160401b03811115612744575f5ffd5b6127508e828f016126d1565b909c509a505060208c01356001600160401b0381111561276e575f5ffd5b61277a8e828f016126d1565b909a5098505060408c01356001600160401b03811115612798575f5ffd5b6127a48e828f016126d1565b90985096505060608c01356001600160401b038111156127c2575f5ffd5b6127ce8e828f016126d1565b90965094505060808c01356001600160401b038111156127ec575f5ffd5b6127f88e828f016126d1565b9c9f9b9e50999c989b979a969995989497959660a090950135949350505050565b5f5f6040838503121561282a575f5ffd5b50508035926020909101359150565b80151581146108a1575f5ffd5b5f5f60408385031215612857575f5ffd5b6128608361230c565b9150602083013561287081612839565b809150509250929050565b634e487b7160e01b5f52602160045260245ffd5b600381106108a157634e487b7160e01b5f52602160045260245ffd5b6128b48161288f565b9052565b61012081525f6128cc61012083018c61239d565b82810360208401526128de818c61239d565b905082810360408401526128f2818b61239d565b90508281036060840152612906818a61239d565b9050828103608084015261291a818961239d565b9150508560a083015261292c8561288f565b8460c083015261293b8461288f565b60e08201939093526101000152979650505050505050565b5f5f60408385031215612964575f5ffd5b82359150602083013560038110612870575f5ffd5b5f5f6040838503121561298a575f5ffd5b6129938361230c565b91506116766020840161230c565b5f5f604083850312156129b2575f5ffd5b823591506116766020840161230c565b602081525f825161012060208401526129df61014084018261239d565b90506020840151601f198483030160408501526129fc828261239d565b9150506040840151601f19848303016060850152612a1a828261239d565b9150506060840151601f19848303016080850152612a38828261239d565b9150506080840151601f198483030160a0850152612a56828261239d565b91505060a084015160c084015260c0840151612a7560e08501826128ab565b5060e0840151612a896101008501826128ab565b506101008401516101208401528091505092915050565b5f5f5f5f5f60a08688031215612ab4575f5ffd5b612abd8661230c565b9450612acb6020870161230c565b9350604086013592506060860135915060808601356001600160401b038111156125ab575f5ffd5b5f60208284031215612b03575f5ffd5b61237f8261230c565b600181811c90821680612b2057607f821691505b602082108103612b3e57634e487b7160e01b5f52602260045260245ffd5b50919050565b634e487b7160e01b5f52603260045260245ffd5b634e487b7160e01b5f52601160045260245ffd5b80820281158282048414176103b6576103b6612b58565b808201808211156103b6576103b6612b58565b5f60208284031215612ba6575f5ffd5b815161237f81612839565b5f60018201612bc257612bc2612b58565b5060010190565b601f821115612c0d57805f5260205f20601f840160051c81016020851015612bee5750805b601f840160051c820191505b818110156104b5575f8155600101612bfa565b505050565b81516001600160401b03811115612c2b57612c2b6123dd565b612c3f81612c398454612b0c565b84612bc9565b6020601f821160018114612c71575f8315612c5a5750848201515b5f19600385901b1c1916600184901b1784556104b5565b5f84815260208120601f198516915b82811015612ca05787850151825560209485019460019092019101612c80565b5084821015612cbd57868401515f19600387901b60f8161c191681555b50505050600190811b01905550565b81835281816020850137505f828201602090810191909152601f909101601f19169091010190565b606081525f612d07606083018789612ccc565b8281036020840152612d1a818688612ccc565b9150508260408301529695505050505050565b818103818111156103b6576103b6612b58565b60208101612d4d8361288f565b91905290565b604081525f612d656040830185612685565b8281036020840152612d778185612685565b95945050505050565b6001600160a01b0386811682528516602082015260a0604082018190525f90612dab90830186612685565b8281036060840152612dbd8186612685565b90508281036080840152612dd1818561239d565b98975050505050505050565b5f60208284031215612ded575f5ffd5b815161237f8161234f565b6001600160a01b03868116825285166020820152604081018490526060810183905260a0608082018190525f90612e319083018461239d565b97965050505050505056fe9b779b17422d0df92223018b32b4d1fa46e071723d6817e2486d003becc55f00a2646970667358221220e410323d503ba395ea9eb4b58075c934f5d8c26f6da2804e466043b3a7a4730c64736f6c634300081c0033",
  "linkReferences": {},
  "deployedLinkReferences": {},
  "immutableReferences": {
    "7819": [
      {
        "length": 32,
        "start": 451
      },
      {
        "length": 32,
        "start": 1943
      },
      {
        "length": 32,
        "start": 3590
      },
      {
        "length": 32,
        "start": 5353
      }
    ]
  },
  "inputSourceName": "project/contracts/PolyPredict.sol",
  "buildInfoId": "solc-0_8_28-fbc251a4881d71c235677b2857eecf349bef8d32"
}